{
  "contractName": "VideoContract",
  "abi": [
    {
      "inputs": [],
      "stateMutability": "nonpayable",
      "type": "constructor"
    },
    {
      "anonymous": false,
      "inputs": [
        {
          "indexed": false,
          "internalType": "uint256",
          "name": "id",
          "type": "uint256"
        },
        {
          "indexed": false,
          "internalType": "address",
          "name": "charity",
          "type": "address"
        },
        {
          "indexed": false,
          "internalType": "uint256",
          "name": "amount",
          "type": "uint256"
        },
        {
          "indexed": false,
          "internalType": "string",
          "name": "video",
          "type": "string"
        }
      ],
      "name": "DeliverySent",
      "type": "event"
    },
    {
      "anonymous": false,
      "inputs": [
        {
          "indexed": false,
          "internalType": "uint256",
          "name": "id",
          "type": "uint256"
        },
        {
          "indexed": false,
          "internalType": "address",
          "name": "charity",
          "type": "address"
        },
        {
          "indexed": false,
          "internalType": "string",
          "name": "description",
          "type": "string"
        },
        {
          "indexed": false,
          "internalType": "string",
          "name": "title",
          "type": "string"
        },
        {
          "indexed": false,
          "internalType": "string",
          "name": "name",
          "type": "string"
        },
        {
          "indexed": false,
          "internalType": "string",
          "name": "image",
          "type": "string"
        }
      ],
      "name": "UpdatedUser",
      "type": "event"
    },
    {
      "inputs": [],
      "name": "celebCount",
      "outputs": [
        {
          "internalType": "uint256",
          "name": "",
          "type": "uint256"
        }
      ],
      "stateMutability": "view",
      "type": "function",
      "constant": true
    },
    {
      "inputs": [
        {
          "internalType": "uint256",
          "name": "",
          "type": "uint256"
        }
      ],
      "name": "orders",
      "outputs": [
        {
          "internalType": "uint256",
          "name": "videoId",
          "type": "uint256"
        },
        {
          "internalType": "address payable",
          "name": "celebrity",
          "type": "address"
        },
        {
          "internalType": "address payable",
          "name": "charity",
          "type": "address"
        },
        {
          "internalType": "address payable",
          "name": "donor",
          "type": "address"
        },
        {
          "internalType": "string",
          "name": "name_to",
          "type": "string"
        },
        {
          "internalType": "string",
          "name": "name_from",
          "type": "string"
        },
        {
          "internalType": "string",
          "name": "description",
          "type": "string"
        },
        {
          "internalType": "enum VideoContract.VideoStatus",
          "name": "status",
          "type": "uint8"
        },
        {
          "internalType": "string",
          "name": "video",
          "type": "string"
        },
        {
          "internalType": "uint256",
          "name": "order_date",
          "type": "uint256"
        },
        {
          "internalType": "uint256",
          "name": "delivery_date",
          "type": "uint256"
        },
        {
          "internalType": "uint256",
          "name": "donatedAmount",
          "type": "uint256"
        }
      ],
      "stateMutability": "view",
      "type": "function",
      "constant": true
    },
    {
      "inputs": [],
      "name": "owner",
      "outputs": [
        {
          "internalType": "address",
          "name": "",
          "type": "address"
        }
      ],
      "stateMutability": "view",
      "type": "function",
      "constant": true
    },
    {
      "inputs": [
        {
          "internalType": "uint256",
          "name": "",
          "type": "uint256"
        }
      ],
      "name": "registeredCelebs",
      "outputs": [
        {
          "internalType": "uint256",
          "name": "id",
          "type": "uint256"
        },
        {
          "internalType": "address payable",
          "name": "celebrity",
          "type": "address"
        },
        {
          "internalType": "address payable",
          "name": "charity",
          "type": "address"
        },
        {
          "internalType": "string",
          "name": "description",
          "type": "string"
        },
        {
          "internalType": "string",
          "name": "title",
          "type": "string"
        },
        {
          "internalType": "string",
          "name": "name",
          "type": "string"
        },
        {
          "internalType": "string",
          "name": "image",
          "type": "string"
        }
      ],
      "stateMutability": "view",
      "type": "function",
      "constant": true
    },
    {
      "inputs": [],
      "name": "videoCount",
      "outputs": [
        {
          "internalType": "uint256",
          "name": "",
          "type": "uint256"
        }
      ],
      "stateMutability": "view",
      "type": "function",
      "constant": true
    },
    {
      "inputs": [
        {
          "internalType": "address payable",
          "name": "_charity",
          "type": "address"
        },
        {
          "internalType": "string",
          "name": "_description",
          "type": "string"
        },
        {
          "internalType": "string",
          "name": "_title",
          "type": "string"
        },
        {
          "internalType": "string",
          "name": "_name",
          "type": "string"
        },
        {
          "internalType": "string",
          "name": "_image",
          "type": "string"
        }
      ],
      "name": "registerCelebrity",
      "outputs": [],
      "stateMutability": "payable",
      "type": "function",
      "payable": true
    },
    {
      "inputs": [
        {
          "internalType": "address payable",
          "name": "_celebrity",
          "type": "address"
        },
        {
          "internalType": "address payable",
          "name": "_charity",
          "type": "address"
        },
        {
          "internalType": "string",
          "name": "_description",
          "type": "string"
        },
        {
          "internalType": "string",
          "name": "_nameTo",
          "type": "string"
        },
        {
          "internalType": "string",
          "name": "_nameFrom",
          "type": "string"
        },
        {
          "internalType": "uint256",
          "name": "_amount",
          "type": "uint256"
        }
      ],
      "name": "orderVideo",
      "outputs": [],
      "stateMutability": "payable",
      "type": "function",
      "payable": true
    },
    {
      "inputs": [
        {
          "internalType": "uint256",
          "name": "_id",
          "type": "uint256"
        },
        {
          "internalType": "string",
          "name": "_hash",
          "type": "string"
        }
      ],
      "name": "sendOrder",
      "outputs": [
        {
          "internalType": "bool",
          "name": "success",
          "type": "bool"
        }
      ],
      "stateMutability": "payable",
      "type": "function",
      "payable": true
    },
    {
      "inputs": [
        {
          "internalType": "uint256",
          "name": "_id",
          "type": "uint256"
        },
        {
          "internalType": "address payable",
          "name": "_charity",
          "type": "address"
        },
        {
          "internalType": "string",
          "name": "_description",
          "type": "string"
        },
        {
          "internalType": "string",
          "name": "_title",
          "type": "string"
        },
        {
          "internalType": "string",
          "name": "_name",
          "type": "string"
        },
        {
          "internalType": "string",
          "name": "_image",
          "type": "string"
        }
      ],
      "name": "updateUser",
      "outputs": [
        {
          "internalType": "bool",
          "name": "succeess",
          "type": "bool"
        }
      ],
      "stateMutability": "nonpayable",
      "type": "function"
    },
    {
      "inputs": [
        {
          "internalType": "uint256",
          "name": "_id",
          "type": "uint256"
        }
      ],
      "name": "deleteOrder",
      "outputs": [
        {
          "internalType": "bool",
          "name": "success",
          "type": "bool"
        }
      ],
      "stateMutability": "payable",
      "type": "function",
      "payable": true
    },
    {
      "inputs": [
        {
          "internalType": "uint256",
          "name": "_id",
          "type": "uint256"
        }
      ],
      "name": "deleteCelebrity",
      "outputs": [
        {
          "internalType": "bool",
          "name": "success",
          "type": "bool"
        }
      ],
      "stateMutability": "nonpayable",
      "type": "function"
    }
  ],
  "bytecode": "0x60806040526000600355600060045534801561001a57600080fd5b50336000806101000a81548173ffffffffffffffffffffffffffffffffffffffff021916908373ffffffffffffffffffffffffffffffffffffffff1602179055506121b28061006a6000396000f3fe60806040526004361061009c5760003560e01c8063c61b5f4c11610064578063c61b5f4c1461019f578063c86080fe146101ca578063cd3130d7146101e6578063d0755a3f14610229578063d4da6bc914610266578063ee131ab8146102a35761009c565b806311a00327146100a1578063775b9cb5146100d15780638da5cb5b14610101578063a85c38ef1461012c578063b64e7a3814610174575b600080fd5b6100bb60048036038101906100b69190611912565b6102bf565b6040516100c89190611ce4565b60405180910390f35b6100eb60048036038101906100e69190611a24565b6105c2565b6040516100f89190611ce4565b60405180910390f35b34801561010d57600080fd5b5061011661087e565b6040516101239190611cc9565b60405180910390f35b34801561013857600080fd5b50610153600480360381019061014e9190611912565b6108a2565b60405161016b9c9b9a99989796959493929190611d9a565b60405180910390f35b34801561018057600080fd5b50610189610bcf565b6040516101969190611d7f565b60405180910390f35b3480156101ab57600080fd5b506101b4610bd5565b6040516101c19190611d7f565b60405180910390f35b6101e460048036038101906101df919061183b565b610bdb565b005b3480156101f257600080fd5b5061020d60048036038101906102089190611912565b610d78565b6040516102209796959493929190611e70565b60405180910390f35b34801561023557600080fd5b50610250600480360381019061024b9190611912565b61105a565b60405161025d9190611ce4565b60405180910390f35b34801561027257600080fd5b5061028d6004803603810190610288919061193b565b61116a565b60405161029a9190611ce4565b60405180910390f35b6102bd60048036038101906102b8919061176a565b611360565b005b60003373ffffffffffffffffffffffffffffffffffffffff166002600084815260200190815260200160002060030160009054906101000a900473ffffffffffffffffffffffffffffffffffffffff1673ffffffffffffffffffffffffffffffffffffffff16148061037c57503373ffffffffffffffffffffffffffffffffffffffff1660008054906101000a900473ffffffffffffffffffffffffffffffffffffffff1673ffffffffffffffffffffffffffffffffffffffff16145b806103e857503373ffffffffffffffffffffffffffffffffffffffff166002600084815260200190815260200160002060010160009054906101000a900473ffffffffffffffffffffffffffffffffffffffff1673ffffffffffffffffffffffffffffffffffffffff16145b610427576040517f08c379a000000000000000000000000000000000000000000000000000000000815260040161041e90611cff565b60405180910390fd5b6002600083815260200190815260200160002060030160009054906101000a900473ffffffffffffffffffffffffffffffffffffffff1673ffffffffffffffffffffffffffffffffffffffff166108fc60026000858152602001908152602001600020600b01549081150290604051600060405180830381858888f193505050501580156104b9573d6000803e3d6000fd5b50600260008381526020019081526020016000206000808201600090556001820160006101000a81549073ffffffffffffffffffffffffffffffffffffffff02191690556002820160006101000a81549073ffffffffffffffffffffffffffffffffffffffff02191690556003820160006101000a81549073ffffffffffffffffffffffffffffffffffffffff021916905560048201600061055b9190611607565b60058201600061056b9190611607565b60068201600061057b9190611607565b6007820160006101000a81549060ff021916905560088201600061059f9190611607565b6009820160009055600a820160009055600b820160009055505060019050919050565b60006001808111156105d057fe5b6002600085815260200190815260200160002060070160009054906101000a900460ff1660018111156105ff57fe5b1415610640576040517f08c379a000000000000000000000000000000000000000000000000000000000815260040161063790611d3f565b60405180910390fd5b6002600084815260200190815260200160002060010160009054906101000a900473ffffffffffffffffffffffffffffffffffffffff1673ffffffffffffffffffffffffffffffffffffffff163373ffffffffffffffffffffffffffffffffffffffff16146106e4576040517f08c379a00000000000000000000000000000000000000000000000000000000081526004016106db90611d5f565b60405180910390fd5b60016002600085815260200190815260200160002060070160006101000a81548160ff0219169083600181111561071757fe5b02179055508160026000858152602001908152602001600020600801908051906020019061074692919061164f565b504260026000858152602001908152602001600020600a0181905550600060026000858152602001908152602001600020600b0154905060006002600086815260200190815260200160002060020160009054906101000a900473ffffffffffffffffffffffffffffffffffffffff1690508073ffffffffffffffffffffffffffffffffffffffff166108fc839081150290604051600060405180830381858888f193505050501580156107fe573d6000803e3d6000fd5b507f58d9a19bbd655c57e6478edcc7bfc22c01dc0c82db33fc6e5acae14a28e404f2856002600088815260200190815260200160002060020160009054906101000a900473ffffffffffffffffffffffffffffffffffffffff16848760405161086a9493929190611f78565b60405180910390a160019250505092915050565b60008054906101000a900473ffffffffffffffffffffffffffffffffffffffff1681565b60026020528060005260406000206000915090508060000154908060010160009054906101000a900473ffffffffffffffffffffffffffffffffffffffff16908060020160009054906101000a900473ffffffffffffffffffffffffffffffffffffffff16908060030160009054906101000a900473ffffffffffffffffffffffffffffffffffffffff1690806004018054600181600116156101000203166002900480601f0160208091040260200160405190810160405280929190818152602001828054600181600116156101000203166002900480156109c65780601f1061099b576101008083540402835291602001916109c6565b820191906000526020600020905b8154815290600101906020018083116109a957829003601f168201915b505050505090806005018054600181600116156101000203166002900480601f016020809104026020016040519081016040528092919081815260200182805460018160011615610100020316600290048015610a645780601f10610a3957610100808354040283529160200191610a64565b820191906000526020600020905b815481529060010190602001808311610a4757829003601f168201915b505050505090806006018054600181600116156101000203166002900480601f016020809104026020016040519081016040528092919081815260200182805460018160011615610100020316600290048015610b025780601f10610ad757610100808354040283529160200191610b02565b820191906000526020600020905b815481529060010190602001808311610ae557829003601f168201915b5050505050908060070160009054906101000a900460ff1690806008018054600181600116156101000203166002900480601f016020809104026020016040519081016040528092919081815260200182805460018160011615610100020316600290048015610bb35780601f10610b8857610100808354040283529160200191610bb3565b820191906000526020600020905b815481529060010190602001808311610b9657829003601f168201915b50505050509080600901549080600a01549080600b015490508c565b60045481565b60035481565b6040518060e0016040528060045481526020013373ffffffffffffffffffffffffffffffffffffffff1681526020018673ffffffffffffffffffffffffffffffffffffffff168152602001858152602001848152602001838152602001828152506001600060045481526020019081526020016000206000820151816000015560208201518160010160006101000a81548173ffffffffffffffffffffffffffffffffffffffff021916908373ffffffffffffffffffffffffffffffffffffffff16021790555060408201518160020160006101000a81548173ffffffffffffffffffffffffffffffffffffffff021916908373ffffffffffffffffffffffffffffffffffffffff1602179055506060820151816003019080519060200190610d0592919061164f565b506080820151816004019080519060200190610d2292919061164f565b5060a0820151816005019080519060200190610d3f92919061164f565b5060c0820151816006019080519060200190610d5c92919061164f565b5090505060016004600082825401925050819055505050505050565b60016020528060005260406000206000915090508060000154908060010160009054906101000a900473ffffffffffffffffffffffffffffffffffffffff16908060020160009054906101000a900473ffffffffffffffffffffffffffffffffffffffff1690806003018054600181600116156101000203166002900480601f016020809104026020016040519081016040528092919081815260200182805460018160011615610100020316600290048015610e765780601f10610e4b57610100808354040283529160200191610e76565b820191906000526020600020905b815481529060010190602001808311610e5957829003601f168201915b505050505090806004018054600181600116156101000203166002900480601f016020809104026020016040519081016040528092919081815260200182805460018160011615610100020316600290048015610f145780601f10610ee957610100808354040283529160200191610f14565b820191906000526020600020905b815481529060010190602001808311610ef757829003601f168201915b505050505090806005018054600181600116156101000203166002900480601f016020809104026020016040519081016040528092919081815260200182805460018160011615610100020316600290048015610fb25780601f10610f8757610100808354040283529160200191610fb2565b820191906000526020600020905b815481529060010190602001808311610f9557829003601f168201915b505050505090806006018054600181600116156101000203166002900480601f0160208091040260200160405190810160405280929190818152602001828054600181600116156101000203166002900480156110505780601f1061102557610100808354040283529160200191611050565b820191906000526020600020905b81548152906001019060200180831161103357829003601f168201915b5050505050905087565b60008060009054906101000a900473ffffffffffffffffffffffffffffffffffffffff1673ffffffffffffffffffffffffffffffffffffffff163373ffffffffffffffffffffffffffffffffffffffff16146110b557600080fd5b600160008381526020019081526020016000206000808201600090556001820160006101000a81549073ffffffffffffffffffffffffffffffffffffffff02191690556002820160006101000a81549073ffffffffffffffffffffffffffffffffffffffff021916905560038201600061112f9190611607565b60048201600061113f9190611607565b60058201600061114f9190611607565b60068201600061115f9190611607565b505060019050919050565b60006001600088815260200190815260200160002060010160009054906101000a900473ffffffffffffffffffffffffffffffffffffffff1673ffffffffffffffffffffffffffffffffffffffff163373ffffffffffffffffffffffffffffffffffffffff1614611210576040517f08c379a000000000000000000000000000000000000000000000000000000000815260040161120790611d1f565b60405180910390fd5b856001600089815260200190815260200160002060020160006101000a81548173ffffffffffffffffffffffffffffffffffffffff021916908373ffffffffffffffffffffffffffffffffffffffff1602179055508460016000898152602001908152602001600020600301908051906020019061128f92919061164f565b50836001600089815260200190815260200160002060040190805190602001906112ba92919061164f565b50826001600089815260200190815260200160002060050190805190602001906112e592919061164f565b508160016000898152602001908152602001600020600601908051906020019061131092919061164f565b507f02a61f306af6670ea1ef1ea9158212edd638a6abf96cb91680b5ebe8276f097987878787878760405161134a96959493929190611efb565b60405180910390a1600190509695505050505050565b60405180610180016040528060035481526020018773ffffffffffffffffffffffffffffffffffffffff1681526020018673ffffffffffffffffffffffffffffffffffffffff1681526020013373ffffffffffffffffffffffffffffffffffffffff168152602001848152602001838152602001858152602001600060018111156113e757fe5b81526020016040518060400160405280600181526020017f3000000000000000000000000000000000000000000000000000000000000000815250815260200142815260200160008152602001828152506002600060035481526020019081526020016000206000820151816000015560208201518160010160006101000a81548173ffffffffffffffffffffffffffffffffffffffff021916908373ffffffffffffffffffffffffffffffffffffffff16021790555060408201518160020160006101000a81548173ffffffffffffffffffffffffffffffffffffffff021916908373ffffffffffffffffffffffffffffffffffffffff16021790555060608201518160030160006101000a81548173ffffffffffffffffffffffffffffffffffffffff021916908373ffffffffffffffffffffffffffffffffffffffff160217905550608082015181600401908051906020019061154892919061164f565b5060a082015181600501908051906020019061156592919061164f565b5060c082015181600601908051906020019061158292919061164f565b5060e08201518160070160006101000a81548160ff021916908360018111156115a757fe5b02179055506101008201518160080190805190602001906115c992919061164f565b50610120820151816009015561014082015181600a015561016082015181600b01559050506001600360008282540192505081905550505050505050565b50805460018160011615610100020316600290046000825580601f1061162d575061164c565b601f01602090049060005260206000209081019061164b91906116cf565b5b50565b828054600181600116156101000203166002900490600052602060002090601f016020900481019282601f1061169057805160ff19168380011785556116be565b828001600101855582156116be579182015b828111156116bd5782518255916020019190600101906116a2565b5b5090506116cb91906116cf565b5090565b5b808211156116e85760008160009055506001016116d0565b5090565b6000813590506116fb8161214e565b92915050565b600082601f83011261171257600080fd5b813561172561172082611ff1565b611fc4565b9150808252602083016020830185838301111561174157600080fd5b61174c8382846120ee565b50505092915050565b60008135905061176481612165565b92915050565b60008060008060008060c0878903121561178357600080fd5b600061179189828a016116ec565b96505060206117a289828a016116ec565b955050604087013567ffffffffffffffff8111156117bf57600080fd5b6117cb89828a01611701565b945050606087013567ffffffffffffffff8111156117e857600080fd5b6117f489828a01611701565b935050608087013567ffffffffffffffff81111561181157600080fd5b61181d89828a01611701565b92505060a061182e89828a01611755565b9150509295509295509295565b600080600080600060a0868803121561185357600080fd5b6000611861888289016116ec565b955050602086013567ffffffffffffffff81111561187e57600080fd5b61188a88828901611701565b945050604086013567ffffffffffffffff8111156118a757600080fd5b6118b388828901611701565b935050606086013567ffffffffffffffff8111156118d057600080fd5b6118dc88828901611701565b925050608086013567ffffffffffffffff8111156118f957600080fd5b61190588828901611701565b9150509295509295909350565b60006020828403121561192457600080fd5b600061193284828501611755565b91505092915050565b60008060008060008060c0878903121561195457600080fd5b600061196289828a01611755565b965050602061197389828a016116ec565b955050604087013567ffffffffffffffff81111561199057600080fd5b61199c89828a01611701565b945050606087013567ffffffffffffffff8111156119b957600080fd5b6119c589828a01611701565b935050608087013567ffffffffffffffff8111156119e257600080fd5b6119ee89828a01611701565b92505060a087013567ffffffffffffffff811115611a0b57600080fd5b611a1789828a01611701565b9150509295509295509295565b60008060408385031215611a3757600080fd5b6000611a4585828601611755565b925050602083013567ffffffffffffffff811115611a6257600080fd5b611a6e85828601611701565b9150509250929050565b611a81816120a6565b82525050565b611a908161204b565b82525050565b611a9f81612039565b82525050565b611aae8161205d565b82525050565b611abd816120b8565b82525050565b6000611ace8261201d565b611ad88185612028565b9350611ae88185602086016120fd565b611af181612130565b840191505092915050565b6000611b09605783612028565b91507f4f6e6c792074686520636f6e7472616374206f776e65722c20746865206f726460008301527f6572657220616e642074686520726567697374657265642070726f66696c652060208301527f616e6420706572666f726d207468697320616374696f6e0000000000000000006040830152606082019050919050565b6000611b95602c83612028565b91507f4f6e6c7920746865207265676973746572656420616464726573732063616e2060008301527f6d616b65206368616e67657300000000000000000000000000000000000000006020830152604082019050919050565b6000611bfb602583612028565b91507f54686973206f726465722068617320616c7265616479206265656e2064656c6960008301527f76657265640000000000000000000000000000000000000000000000000000006020830152604082019050919050565b6000611c61602783612028565b91507f4f6e6c7920746865207265676973746572656420757365722063616e2073656e60008301527f64206f72646572000000000000000000000000000000000000000000000000006020830152604082019050919050565b611cc38161209c565b82525050565b6000602082019050611cde6000830184611a96565b92915050565b6000602082019050611cf96000830184611aa5565b92915050565b60006020820190508181036000830152611d1881611afc565b9050919050565b60006020820190508181036000830152611d3881611b88565b9050919050565b60006020820190508181036000830152611d5881611bee565b9050919050565b60006020820190508181036000830152611d7881611c54565b9050919050565b6000602082019050611d946000830184611cba565b92915050565b600061018082019050611db0600083018f611cba565b611dbd602083018e611a87565b611dca604083018d611a87565b611dd7606083018c611a87565b8181036080830152611de9818b611ac3565b905081810360a0830152611dfd818a611ac3565b905081810360c0830152611e118189611ac3565b9050611e2060e0830188611ab4565b818103610100830152611e338187611ac3565b9050611e43610120830186611cba565b611e51610140830185611cba565b611e5f610160830184611cba565b9d9c50505050505050505050505050565b600060e082019050611e85600083018a611cba565b611e926020830189611a87565b611e9f6040830188611a87565b8181036060830152611eb18187611ac3565b90508181036080830152611ec58186611ac3565b905081810360a0830152611ed98185611ac3565b905081810360c0830152611eed8184611ac3565b905098975050505050505050565b600060c082019050611f106000830189611cba565b611f1d6020830188611a78565b8181036040830152611f2f8187611ac3565b90508181036060830152611f438186611ac3565b90508181036080830152611f578185611ac3565b905081810360a0830152611f6b8184611ac3565b9050979650505050505050565b6000608082019050611f8d6000830187611cba565b611f9a6020830186611a78565b611fa76040830185611cba565b8181036060830152611fb98184611ac3565b905095945050505050565b6000604051905081810181811067ffffffffffffffff82111715611fe757600080fd5b8060405250919050565b600067ffffffffffffffff82111561200857600080fd5b601f19601f8301169050602081019050919050565b600081519050919050565b600082825260208201905092915050565b60006120448261207c565b9050919050565b60006120568261207c565b9050919050565b60008115159050919050565b600081905061207782612141565b919050565b600073ffffffffffffffffffffffffffffffffffffffff82169050919050565b6000819050919050565b60006120b1826120ca565b9050919050565b60006120c382612069565b9050919050565b60006120d5826120dc565b9050919050565b60006120e78261207c565b9050919050565b82818337600083830152505050565b60005b8381101561211b578082015181840152602081019050612100565b8381111561212a576000848401525b50505050565b6000601f19601f8301169050919050565b6002811061214b57fe5b50565b6121578161204b565b811461216257600080fd5b50565b61216e8161209c565b811461217957600080fd5b5056fea264697066735822122039755b0e9b1d1ea9a06e7a2dbbbeef1bb4ae46f0cbd6d64fa6d3d8ab0a057e2264736f6c634300060c0033",
  "immutableReferences": {},
  "source": "//SPDX-License-Identifier: MIT\n\npragma solidity >=0.6.0 <0.7.0;\npragma experimental ABIEncoderV2;\n\ncontract VideoContract {\n    //owner of contract\n    address public owner;\n\n    //onlyOwner modifier\n    modifier onlyOwner {\n        require(msg.sender == owner);\n        _;\n    }\n\n    //Logging events\n    event UpdatedUser(uint id, address charity, string description, string title, string name, string image);\n    event DeliverySent(uint id, address charity, uint amount, string video);\n\n    constructor() public {\n        owner = msg.sender;\n    }\n\n    //1_Registration by owner\n    //Registration variables\n    //NOTE: mapping cannot have address payable, has to be cast to payable when needed\n    mapping (uint => Celebrity) public registeredCelebs;\n    mapping (uint => Video) public orders;\n\n\n    //2_Video variables:\n    // enum for video status\n    //struct for video properties\n    //video array to store all video orders\n    enum VideoStatus { New, Done }\n\n    uint public videoCount = 0;\n    uint public celebCount = 0;\n\n    struct Video {\n        uint videoId; //pointer\n        address payable celebrity;\n        address payable charity;\n        address payable donor;\n        string name_to;\n        string name_from;\n        string description;\n        VideoStatus status;\n        string video;\n        uint order_date;\n        uint delivery_date;\n        uint donatedAmount;\n    }\n\n\n    //also needs to add charity?\n    struct Celebrity {\n        uint id;\n        //bool isRegistered;\n        address payable celebrity;\n        address payable charity;\n        string description;\n        string title;\n        string name;\n        string image;\n        //bytes32[] manyKeys;\n        //mapping(bytes32 => uint) manyKeyPointers;\n    }\n\n\n    function registerCelebrity(address payable _charity,\n                                string memory _description,\n                                string memory _title,\n                                string memory _name,\n                                string memory _image\n                                )\n                            public payable {\n        registeredCelebs[celebCount] = Celebrity(celebCount, msg.sender, _charity, _description, _title, _name, _image);\n        celebCount += 1;\n    }\n\n\n    /**\n     * Function for people to order a video\n     * x the new value to store\n     * stores the number in the state variable 'storedData'\n    */\n    function orderVideo(\n                        address payable _celebrity,\n                        address payable _charity,\n                        string memory _description,\n                        string memory _nameTo,\n                        string memory _nameFrom,\n                        uint _amount\n                        )\n                        public payable {\n\n        orders[videoCount] = Video(videoCount,\n                                    _celebrity,\n                                    _charity,\n                                    payable(msg.sender),\n                                    _nameTo,\n                                    _nameFrom,\n                                    _description,\n                                    VideoStatus.New,\n                                    \"0\",\n                                    block.timestamp,\n                                    0,\n                                    _amount\n                                    );\n        //deployedVideos.push(newVideo);\n        videoCount += 1;\n    }\n\n\n    //Function to update video status and donate to beneficiary\n    //front end to pass which video was selected.\n    function sendOrder(uint _id, string memory _hash) public payable returns (bool success) {\n        //convert msg.sender to address payable from mapping\n        //address payable videoBeneficiary = payable(celebrityBeneficiaryChoice[msg.sender]);\n        require(orders[_id].status != VideoStatus.Done, \"This order has already been delivered\");\n        require(msg.sender == orders[_id].celebrity, \"Only the registered user can send order\");\n\n       //update video struct\n        orders[_id].status = VideoStatus.Done;\n        orders[_id].video = _hash;\n        orders[_id].delivery_date = block.timestamp;\n\n        uint donation = orders[_id].donatedAmount;\n        address payable charity = orders[_id].charity;\n\n       //send donation to _charity\n        charity.transfer(donation); //fix\n        emit DeliverySent(_id, orders[_id].charity, donation, _hash);\n        return true;\n    }\n\n    //Function to update User\n    function updateUser(uint _id,\n                        address payable _charity,\n                        string memory _description,\n                        string memory _title,\n                        string memory _name,\n                        string memory _image\n                        )\n                    public returns (bool succeess) {\n\n        require(msg.sender == registeredCelebs[_id].celebrity, \"Only the registered address can make changes\");\n\n       //update Celebrity Struct\n        registeredCelebs[_id].charity = _charity;\n        registeredCelebs[_id].description = _description;\n        registeredCelebs[_id].title = _title;\n        registeredCelebs[_id].name = _name;\n        registeredCelebs[_id].image = _image;\n\n        emit UpdatedUser(_id, _charity, _description, _title, _name, _image);\n        return true;\n    }\n\n    //function to delete orders\n    function deleteOrder(uint _id) public payable returns (bool success) {\n        require (orders[_id].donor == msg.sender ||\n                owner == msg.sender ||\n                orders[_id].celebrity == msg.sender\n                , \"Only the contract owner, the orderer and the registered profile and perform this action\");\n\n        orders[_id].donor.transfer(orders[_id].donatedAmount);\n        delete orders[_id];\n        return true;\n    }\n\n    //function to delete orders\n    function deleteCelebrity(uint _id) public onlyOwner returns (bool success) {\n        delete registeredCelebs[_id];\n        return true;\n    }\n}\n",
  "sourcePath": "/Users/filipsundgren/Projects/Ethereum/dapp/contracts/VideoContract.sol",
  "compiler": {
    "name": "solc",
    "version": "0.6.12+commit.27d51765.Emscripten.clang"
  },
  "schemaVersion": "3.1.0",
  "updatedAt": "2021-02-12T12:43:08.772Z",
  "networkType": "ethereum",
  "devdoc": {
    "kind": "dev",
    "methods": {},
    "version": 1
  },
  "userdoc": {
    "kind": "user",
    "methods": {
      "orderVideo(address,address,string,string,string,uint256)": {
        "notice": "Function for people to order a video x the new value to store stores the number in the state variable 'storedData'"
      }
    },
    "version": 1
  }
}