{
  "contractName": "VideoContract",
  "abi": [
    {
      "inputs": [],
      "stateMutability": "nonpayable",
      "type": "constructor"
    },
    {
      "anonymous": false,
      "inputs": [
        {
          "indexed": false,
          "internalType": "uint256",
          "name": "id",
          "type": "uint256"
        },
        {
          "indexed": false,
          "internalType": "address",
          "name": "charity",
          "type": "address"
        },
        {
          "indexed": false,
          "internalType": "uint256",
          "name": "amount",
          "type": "uint256"
        },
        {
          "indexed": false,
          "internalType": "string",
          "name": "video",
          "type": "string"
        }
      ],
      "name": "DeliverySent",
      "type": "event"
    },
    {
      "anonymous": false,
      "inputs": [
        {
          "indexed": false,
          "internalType": "uint256",
          "name": "id",
          "type": "uint256"
        },
        {
          "indexed": false,
          "internalType": "uint256",
          "name": "amount",
          "type": "uint256"
        },
        {
          "indexed": false,
          "internalType": "address",
          "name": "donorAddress",
          "type": "address"
        }
      ],
      "name": "OrderDeleted",
      "type": "event"
    },
    {
      "anonymous": false,
      "inputs": [
        {
          "indexed": false,
          "internalType": "uint256",
          "name": "id",
          "type": "uint256"
        },
        {
          "indexed": false,
          "internalType": "address",
          "name": "charity",
          "type": "address"
        },
        {
          "indexed": false,
          "internalType": "string",
          "name": "description",
          "type": "string"
        },
        {
          "indexed": false,
          "internalType": "string",
          "name": "title",
          "type": "string"
        },
        {
          "indexed": false,
          "internalType": "string",
          "name": "name",
          "type": "string"
        },
        {
          "indexed": false,
          "internalType": "string",
          "name": "image",
          "type": "string"
        }
      ],
      "name": "UpdatedUser",
      "type": "event"
    },
    {
      "inputs": [],
      "name": "celebCount",
      "outputs": [
        {
          "internalType": "uint256",
          "name": "",
          "type": "uint256"
        }
      ],
      "stateMutability": "view",
      "type": "function",
      "constant": true
    },
    {
      "inputs": [
        {
          "internalType": "uint256",
          "name": "",
          "type": "uint256"
        }
      ],
      "name": "orders",
      "outputs": [
        {
          "internalType": "uint256",
          "name": "videoId",
          "type": "uint256"
        },
        {
          "internalType": "address payable",
          "name": "celebrity",
          "type": "address"
        },
        {
          "internalType": "address payable",
          "name": "charity",
          "type": "address"
        },
        {
          "internalType": "address payable",
          "name": "donor",
          "type": "address"
        },
        {
          "internalType": "string",
          "name": "name_to",
          "type": "string"
        },
        {
          "internalType": "string",
          "name": "name_from",
          "type": "string"
        },
        {
          "internalType": "string",
          "name": "description",
          "type": "string"
        },
        {
          "internalType": "enum VideoContract.VideoStatus",
          "name": "status",
          "type": "uint8"
        },
        {
          "internalType": "string",
          "name": "video",
          "type": "string"
        },
        {
          "internalType": "uint256",
          "name": "order_date",
          "type": "uint256"
        },
        {
          "internalType": "uint256",
          "name": "delivery_date",
          "type": "uint256"
        },
        {
          "internalType": "uint256",
          "name": "donatedAmount",
          "type": "uint256"
        }
      ],
      "stateMutability": "view",
      "type": "function",
      "constant": true
    },
    {
      "inputs": [],
      "name": "owner",
      "outputs": [
        {
          "internalType": "address",
          "name": "",
          "type": "address"
        }
      ],
      "stateMutability": "view",
      "type": "function",
      "constant": true
    },
    {
      "inputs": [
        {
          "internalType": "uint256",
          "name": "",
          "type": "uint256"
        }
      ],
      "name": "registeredCelebs",
      "outputs": [
        {
          "internalType": "uint256",
          "name": "id",
          "type": "uint256"
        },
        {
          "internalType": "address payable",
          "name": "celebrity",
          "type": "address"
        },
        {
          "internalType": "address payable",
          "name": "charity",
          "type": "address"
        },
        {
          "internalType": "string",
          "name": "description",
          "type": "string"
        },
        {
          "internalType": "string",
          "name": "title",
          "type": "string"
        },
        {
          "internalType": "string",
          "name": "name",
          "type": "string"
        },
        {
          "internalType": "string",
          "name": "image",
          "type": "string"
        }
      ],
      "stateMutability": "view",
      "type": "function",
      "constant": true
    },
    {
      "inputs": [],
      "name": "videoCount",
      "outputs": [
        {
          "internalType": "uint256",
          "name": "",
          "type": "uint256"
        }
      ],
      "stateMutability": "view",
      "type": "function",
      "constant": true
    },
    {
      "inputs": [
        {
          "internalType": "address payable",
          "name": "_charity",
          "type": "address"
        },
        {
          "internalType": "string",
          "name": "_description",
          "type": "string"
        },
        {
          "internalType": "string",
          "name": "_title",
          "type": "string"
        },
        {
          "internalType": "string",
          "name": "_name",
          "type": "string"
        },
        {
          "internalType": "string",
          "name": "_image",
          "type": "string"
        }
      ],
      "name": "registerCelebrity",
      "outputs": [],
      "stateMutability": "payable",
      "type": "function",
      "payable": true
    },
    {
      "inputs": [
        {
          "internalType": "address payable",
          "name": "_celebrity",
          "type": "address"
        },
        {
          "internalType": "address payable",
          "name": "_charity",
          "type": "address"
        },
        {
          "internalType": "string",
          "name": "_description",
          "type": "string"
        },
        {
          "internalType": "string",
          "name": "_nameTo",
          "type": "string"
        },
        {
          "internalType": "string",
          "name": "_nameFrom",
          "type": "string"
        },
        {
          "internalType": "uint256",
          "name": "_amount",
          "type": "uint256"
        }
      ],
      "name": "orderVideo",
      "outputs": [],
      "stateMutability": "payable",
      "type": "function",
      "payable": true
    },
    {
      "inputs": [
        {
          "internalType": "uint256",
          "name": "_id",
          "type": "uint256"
        },
        {
          "internalType": "string",
          "name": "_hash",
          "type": "string"
        }
      ],
      "name": "sendOrder",
      "outputs": [
        {
          "internalType": "bool",
          "name": "success",
          "type": "bool"
        }
      ],
      "stateMutability": "payable",
      "type": "function",
      "payable": true
    },
    {
      "inputs": [
        {
          "internalType": "uint256",
          "name": "_id",
          "type": "uint256"
        },
        {
          "internalType": "address payable",
          "name": "_charity",
          "type": "address"
        },
        {
          "internalType": "string",
          "name": "_description",
          "type": "string"
        },
        {
          "internalType": "string",
          "name": "_title",
          "type": "string"
        },
        {
          "internalType": "string",
          "name": "_name",
          "type": "string"
        },
        {
          "internalType": "string",
          "name": "_image",
          "type": "string"
        }
      ],
      "name": "updateUser",
      "outputs": [
        {
          "internalType": "bool",
          "name": "succeess",
          "type": "bool"
        }
      ],
      "stateMutability": "nonpayable",
      "type": "function"
    },
    {
      "inputs": [
        {
          "internalType": "uint256",
          "name": "_id",
          "type": "uint256"
        }
      ],
      "name": "deleteOrder",
      "outputs": [
        {
          "internalType": "bool",
          "name": "success",
          "type": "bool"
        }
      ],
      "stateMutability": "payable",
      "type": "function",
      "payable": true
    },
    {
      "inputs": [
        {
          "internalType": "uint256",
          "name": "_id",
          "type": "uint256"
        }
      ],
      "name": "deleteCelebrity",
      "outputs": [
        {
          "internalType": "bool",
          "name": "success",
          "type": "bool"
        }
      ],
      "stateMutability": "nonpayable",
      "type": "function"
    }
  ],
  "bytecode": "0x60806040526000600355600060045534801561001a57600080fd5b50600080546001600160a01b031916331790556116158061003c6000396000f3fe60806040526004361061009c5760003560e01c8063c61b5f4c11610064578063c61b5f4c14610159578063c86080fe1461016e578063cd3130d714610183578063d0755a3f146101b6578063d4da6bc9146101d6578063ee131ab8146101f65761009c565b806311a00327146100a1578063775b9cb5146100ca5780638da5cb5b146100dd578063a85c38ef146100ff578063b64e7a3814610137575b600080fd5b6100b46100af366004611169565b610209565b6040516100c19190611302565b60405180910390f35b6100b46100d8366004611243565b610363565b3480156100e957600080fd5b506100f26104e5565b6040516100c191906112ee565b34801561010b57600080fd5b5061011f61011a366004611169565b6104f4565b6040516100c19c9b9a999897969594939291906113ee565b34801561014357600080fd5b5061014c610788565b6040516100c191906113e5565b34801561016557600080fd5b5061014c61078e565b61018161017c3660046110af565b610794565b005b34801561018f57600080fd5b506101a361019e366004611169565b610897565b6040516100c1979695949392919061149e565b3480156101c257600080fd5b506100b46101d1366004611169565b610b06565b3480156101e257600080fd5b506100b46101f1366004611181565b610b92565b610181610204366004610fff565b610cce565b600081815260026020526040808220600b8101546003909101549151670de0b6b3a7640000909102916001600160a01b03169082156108fc0290839085818181858888f19350505050158015610263573d6000803e3d6000fd5b5060008381526002602052604090819020600b81015460039091015491517f574eb531678b9201f47f1f85507a20c219a55d305a9531106b1160779feb8dc3926102ba92879290916001600160a01b0316906115c0565b60405180910390a1600083815260026020819052604082208281556001810180546001600160a01b03199081169091559181018054831690556003810180549092169091559061030d6004830182610e90565b61031b600583016000610e90565b610329600683016000610e90565b60078201805460ff19169055610343600883016000610e90565b50600060098201819055600a8201819055600b9091015550600192915050565b6000600160008481526002602052604090206007015460ff16600181111561038757fe5b14156103ae5760405162461bcd60e51b81526004016103a590611359565b60405180910390fd5b6000838152600260205260409020600101546001600160a01b031633146103e75760405162461bcd60e51b81526004016103a59061139e565b600083815260026020908152604090912060078101805460ff19166001179055835161041b92600890920191850190610ed7565b50600083815260026020819052604080832042600a820155600b8101549201549051670de0b6b3a7640000909202926001600160a01b0390911691829184156108fc02918591818181858888f1935050505015801561047e573d6000803e3d6000fd5b50600085815260026020819052604091829020015490517f58d9a19bbd655c57e6478edcc7bfc22c01dc0c82db33fc6e5acae14a28e404f2916104d09188916001600160a01b03169086908990611589565b60405180910390a16001925050505b92915050565b6000546001600160a01b031681565b60026020818152600092835260409283902080546001808301548386015460038501546004860180548a516101009682161596909602600019011698909804601f810188900488028501880190995288845293976001600160a01b03928316979183169692909416949390918301828280156105b15780601f10610586576101008083540402835291602001916105b1565b820191906000526020600020905b81548152906001019060200180831161059457829003601f168201915b5050505060058301805460408051602060026001851615610100026000190190941693909304601f81018490048402820184019092528181529495949350908301828280156106415780601f1061061657610100808354040283529160200191610641565b820191906000526020600020905b81548152906001019060200180831161062457829003601f168201915b5050505060068301805460408051602060026001851615610100026000190190941693909304601f81018490048402820184019092528181529495949350908301828280156106d15780601f106106a6576101008083540402835291602001916106d1565b820191906000526020600020905b8154815290600101906020018083116106b457829003601f168201915b50505050600783015460088401805460408051602060026101006001861615026000190190941693909304601f8101849004840282018401909252818152959660ff909416959394509083018282801561076c5780601f106107415761010080835404028352916020019161076c565b820191906000526020600020905b81548152906001019060200180831161074f57829003601f168201915b50505050509080600901549080600a01549080600b015490508c565b60045481565b60035481565b6040805160e0810182526004548082523360208084019182526001600160a01b038a8116858701908152606086018b8152608087018b905260a087018a905260c08701899052600095865260018085529790952086518155935196840180546001600160a01b03199081169884169890981790555160028401805490971691161790945590518051929391926108309260038501920190610ed7565b506080820151805161084c916004840191602090910190610ed7565b5060a08201518051610868916005840191602090910190610ed7565b5060c08201518051610884916006840191602090910190610ed7565b5050600480546001019055505050505050565b60016020818152600092835260409283902080548184015460028084015460038501805489516101009982161599909902600019011692909204601f810187900487028801870190985287875292966001600160a01b039283169692909316949192909183018282801561094c5780601f106109215761010080835404028352916020019161094c565b820191906000526020600020905b81548152906001019060200180831161092f57829003601f168201915b5050505060048301805460408051602060026001851615610100026000190190941693909304601f81018490048402820184019092528181529495949350908301828280156109dc5780601f106109b1576101008083540402835291602001916109dc565b820191906000526020600020905b8154815290600101906020018083116109bf57829003601f168201915b5050505060058301805460408051602060026001851615610100026000190190941693909304601f8101849004840282018401909252818152949594935090830182828015610a6c5780601f10610a4157610100808354040283529160200191610a6c565b820191906000526020600020905b815481529060010190602001808311610a4f57829003601f168201915b5050505060068301805460408051602060026001851615610100026000190190941693909304601f8101849004840282018401909252818152949594935090830182828015610afc5780601f10610ad157610100808354040283529160200191610afc565b820191906000526020600020905b815481529060010190602001808311610adf57829003601f168201915b5050505050905087565b600080546001600160a01b03163314610b1e57600080fd5b6000828152600160208190526040822082815590810180546001600160a01b0319908116909155600282018054909116905590610b5e6003830182610e90565b610b6c600483016000610e90565b610b7a600583016000610e90565b610b88600683016000610e90565b5060019392505050565b6000868152600160208190526040822001546001600160a01b03163314610bcb5760405162461bcd60e51b81526004016103a59061130d565b60008781526001602090815260409091206002810180546001600160a01b0319166001600160a01b038a161790558651610c0d92600390920191880190610ed7565b5060008781526001602090815260409091208551610c3392600490920191870190610ed7565b5060008781526001602090815260409091208451610c5992600590920191860190610ed7565b5060008781526001602090815260409091208351610c7f92600690920191850190610ed7565b507f02a61f306af6670ea1ef1ea9158212edd638a6abf96cb91680b5ebe8276f0979878787878787604051610cb996959493929190611518565b60405180910390a15060019695505050505050565b6040518061018001604052806003548152602001876001600160a01b03168152602001866001600160a01b03168152602001336001600160a01b0316815260200184815260200183815260200185815260200160006001811115610d2e57fe5b81526040805180820182526001808252600360fc1b602080840191909152808501929092524283850152600060608086018290526080958601889052600380548352600280865292869020885181558886015194810180546001600160a01b03199081166001600160a01b03978816179091559689015193810180548816948616949094179093559087015190820180549095169216919091179092559183015180519192610de592600485019290910190610ed7565b5060a08201518051610e01916005840191602090910190610ed7565b5060c08201518051610e1d916006840191602090910190610ed7565b5060e082015160078201805460ff191660018381811115610e3a57fe5b02179055506101008201518051610e5b916008840191602090910190610ed7565b506101208201516009820155610140820151600a82015561016090910151600b90910155505060038054600101905550505050565b50805460018160011615610100020316600290046000825580601f10610eb65750610ed4565b601f016020900490600052602060002090810190610ed49190610f55565b50565b828054600181600116156101000203166002900490600052602060002090601f016020900481019282601f10610f1857805160ff1916838001178555610f45565b82800160010185558215610f45579182015b82811115610f45578251825591602001919060010190610f2a565b50610f51929150610f55565b5090565b5b80821115610f515760008155600101610f56565b80356001600160a01b03811681146104df57600080fd5b600082601f830112610f91578081fd5b813567ffffffffffffffff80821115610fa8578283fd5b604051601f8301601f191681016020018281118282101715610fc8578485fd5b604052828152925082848301602001861015610fe357600080fd5b8260208601602083013760006020848301015250505092915050565b60008060008060008060c08789031215611017578182fd5b6110218888610f6a565b95506110308860208901610f6a565b9450604087013567ffffffffffffffff8082111561104c578384fd5b6110588a838b01610f81565b9550606089013591508082111561106d578384fd5b6110798a838b01610f81565b9450608089013591508082111561108e578384fd5b5061109b89828a01610f81565b92505060a087013590509295509295509295565b600080600080600060a086880312156110c6578081fd5b6110d08787610f6a565b9450602086013567ffffffffffffffff808211156110ec578283fd5b6110f889838a01610f81565b9550604088013591508082111561110d578283fd5b61111989838a01610f81565b9450606088013591508082111561112e578283fd5b61113a89838a01610f81565b9350608088013591508082111561114f578283fd5b5061115c88828901610f81565b9150509295509295909350565b60006020828403121561117a578081fd5b5035919050565b60008060008060008060c08789031215611199578182fd5b863595506111aa8860208901610f6a565b9450604087013567ffffffffffffffff808211156111c6578384fd5b6111d28a838b01610f81565b955060608901359150808211156111e7578384fd5b6111f38a838b01610f81565b94506080890135915080821115611208578384fd5b6112148a838b01610f81565b935060a0890135915080821115611229578283fd5b5061123689828a01610f81565b9150509295509295509295565b60008060408385031215611255578182fd5b82359150602083013567ffffffffffffffff811115611272578182fd5b61127e85828601610f81565b9150509250929050565b6001600160a01b03169052565b6002811061129f57fe5b9052565b60008151808452815b818110156112c8576020818501810151868301820152016112ac565b818111156112d95782602083870101525b50601f01601f19169290920160200192915050565b6001600160a01b0391909116815260200190565b901515815260200190565b6020808252602c908201527f4f6e6c7920746865207265676973746572656420616464726573732063616e2060408201526b6d616b65206368616e67657360a01b606082015260800190565b60208082526025908201527f54686973206f726465722068617320616c7265616479206265656e2064656c696040820152641d995c995960da1b606082015260800190565b60208082526027908201527f4f6e6c7920746865207265676973746572656420757365722063616e2073656e604082015266321037b93232b960c91b606082015260800190565b90815260200190565b8c81526001600160a01b038c811660208301528b166040820152600061018061141a606084018d611288565b80608084015261142c8184018c6112a3565b905082810360a0840152611440818b6112a3565b905082810360c0840152611454818a6112a3565b905061146360e0840189611295565b82810361010084015261147681886112a3565b6101208401969096525050610140810192909252610160909101529998505050505050505050565b8781526001600160a01b0387811660208301528616604082015260e0606082018190526000906114d0908301876112a3565b82810360808401526114e281876112a3565b905082810360a08401526114f681866112a3565b905082810360c084015261150a81856112a3565b9a9950505050505050505050565b8681526001600160a01b038616602082015260c060408201819052600090611542908301876112a3565b828103606084015261155481876112a3565b9050828103608084015261156881866112a3565b905082810360a084015261157c81856112a3565b9998505050505050505050565b600085825260018060a01b0385166020830152836040830152608060608301526115b660808301846112a3565b9695505050505050565b92835260208301919091526001600160a01b031660408201526060019056fea2646970667358221220d2852124ee02281ed0cfac7daacaad9bd2c3942b778bae39081194679344678964736f6c634300060c0033",
  "immutableReferences": {},
  "source": "//SPDX-License-Identifier: MIT\n\npragma solidity >=0.6.0 <0.7.0;\npragma experimental ABIEncoderV2;\n\ncontract VideoContract {\n    //owner of contract\n    address public owner;\n\n    //onlyOwner modifier\n    modifier onlyOwner {\n        require(msg.sender == owner);\n        _;\n    }\n\n    //Logging events\n    event UpdatedUser(uint id, address charity, string description, string title, string name, string image);\n    event DeliverySent(uint id, address charity, uint amount, string video);\n    event OrderDeleted(uint id, uint amount, address donorAddress);\n\n    constructor() public {\n        owner = msg.sender;\n    }\n\n    //1_Registration by owner\n    //Registration variables\n    //NOTE: mapping cannot have address payable, has to be cast to payable when needed\n    mapping (uint => Celebrity) public registeredCelebs;\n    mapping (uint => Video) public orders;\n\n\n    //2_Video variables:\n    // enum for video status\n    //struct for video properties\n    //video array to store all video orders\n    enum VideoStatus { New, Done }\n\n    uint public videoCount = 0;\n    uint public celebCount = 0;\n\n    struct Video {\n        uint videoId; //pointer\n        address payable celebrity;\n        address payable charity;\n        address payable donor;\n        string name_to;\n        string name_from;\n        string description;\n        VideoStatus status;\n        string video;\n        uint order_date;\n        uint delivery_date;\n        uint donatedAmount;\n    }\n\n\n    //also needs to add charity?\n    struct Celebrity {\n        uint id;\n        //bool isRegistered;\n        address payable celebrity;\n        address payable charity;\n        string description;\n        string title;\n        string name;\n        string image;\n        //bytes32[] manyKeys;\n        //mapping(bytes32 => uint) manyKeyPointers;\n    }\n\n\n    function registerCelebrity(address payable _charity,\n                                string memory _description,\n                                string memory _title,\n                                string memory _name,\n                                string memory _image\n                                )\n                            public payable {\n        registeredCelebs[celebCount] = Celebrity(celebCount, msg.sender, _charity, _description, _title, _name, _image);\n        celebCount += 1;\n    }\n\n\n    /**\n     * Function for people to order a video\n     * x the new value to store\n     * stores the number in the state variable 'storedData'\n    */\n    function orderVideo(\n                        address payable _celebrity,\n                        address payable _charity,\n                        string memory _description,\n                        string memory _nameTo,\n                        string memory _nameFrom,\n                        uint _amount\n                        )\n                        public payable {\n\n        orders[videoCount] = Video(videoCount,\n                                    _celebrity,\n                                    _charity,\n                                    payable(msg.sender),\n                                    _nameTo,\n                                    _nameFrom,\n                                    _description,\n                                    VideoStatus.New,\n                                    \"0\",\n                                    block.timestamp,\n                                    0,\n                                    _amount\n                                    );\n        //deployedVideos.push(newVideo);\n        videoCount += 1;\n    }\n\n\n    //Function to update video status and donate to beneficiary\n    //front end to pass which video was selected.\n    function sendOrder(uint _id, string memory _hash) public payable returns (bool success) {\n        //convert msg.sender to address payable from mapping\n        //address payable videoBeneficiary = payable(celebrityBeneficiaryChoice[msg.sender]);\n        require(orders[_id].status != VideoStatus.Done, \"This order has already been delivered\");\n        require(msg.sender == orders[_id].celebrity, \"Only the registered user can send order\");\n\n       //update video struct\n        orders[_id].status = VideoStatus.Done;\n        orders[_id].video = _hash;\n        orders[_id].delivery_date = block.timestamp;\n\n        uint donation = orders[_id].donatedAmount * 1000000000000000000;\n        address payable charity = orders[_id].charity;\n\n       //send donation to _charity\n        charity.transfer(donation); //fix\n        emit DeliverySent(_id, orders[_id].charity, donation, _hash);\n        return true;\n    }\n\n    //Function to update User\n    function updateUser(uint _id,\n                        address payable _charity,\n                        string memory _description,\n                        string memory _title,\n                        string memory _name,\n                        string memory _image\n                        )\n                    public returns (bool succeess) {\n\n        require(msg.sender == registeredCelebs[_id].celebrity, \"Only the registered address can make changes\");\n\n       //update Celebrity Struct\n        registeredCelebs[_id].charity = _charity;\n        registeredCelebs[_id].description = _description;\n        registeredCelebs[_id].title = _title;\n        registeredCelebs[_id].name = _name;\n        registeredCelebs[_id].image = _image;\n\n        emit UpdatedUser(_id, _charity, _description, _title, _name, _image);\n        return true;\n    }\n\n    //function to delete orders\n    function deleteOrder(uint _id) public payable returns (bool success) {\n        /* require (orders[_id].donor == msg.sender ||\n                owner == msg.sender ||\n                orders[_id].celebrity == msg.sender\n                , \"Only the contract owner, the orderer and the registered profile and perform this action\"); */\n\n        //convert wei to ether\n        uint withdraw = orders[_id].donatedAmount * 1000000000000000000; // * 1000000000000000000\n        payable(orders[_id].donor).transfer(withdraw);\n        emit OrderDeleted(_id, orders[_id].donatedAmount, orders[_id].donor);\n        delete orders[_id];\n        return true;\n    }\n\n    //function to delete orders\n    function deleteCelebrity(uint _id) public onlyOwner returns (bool success) {\n        delete registeredCelebs[_id];\n        return true;\n    }\n}\n",
  "sourcePath": "/Users/filipsundgren/Projects/Ethereum/dapp/contracts/VideoContract.sol",
  "compiler": {
    "name": "solc",
    "version": "0.6.12+commit.27d51765.Emscripten.clang"
  },
  "schemaVersion": "3.1.0",
  "updatedAt": "2021-02-16T21:42:13.145Z",
  "networkType": "ethereum",
  "devdoc": {
    "kind": "dev",
    "methods": {},
    "version": 1
  },
  "userdoc": {
    "kind": "user",
    "methods": {
      "orderVideo(address,address,string,string,string,uint256)": {
        "notice": "Function for people to order a video x the new value to store stores the number in the state variable 'storedData'"
      }
    },
    "version": 1
  }
}