{
  "contractName": "VideoContract",
  "abi": [
    {
      "inputs": [],
      "stateMutability": "nonpayable",
      "type": "constructor"
    },
    {
      "inputs": [
        {
          "internalType": "address",
          "name": "",
          "type": "address"
        }
      ],
      "name": "beneficiaries",
      "outputs": [
        {
          "internalType": "string",
          "name": "",
          "type": "string"
        }
      ],
      "stateMutability": "view",
      "type": "function",
      "constant": true
    },
    {
      "inputs": [
        {
          "internalType": "uint256",
          "name": "",
          "type": "uint256"
        }
      ],
      "name": "beneficiaryList",
      "outputs": [
        {
          "internalType": "address",
          "name": "",
          "type": "address"
        }
      ],
      "stateMutability": "view",
      "type": "function",
      "constant": true
    },
    {
      "inputs": [],
      "name": "celebCount",
      "outputs": [
        {
          "internalType": "uint256",
          "name": "",
          "type": "uint256"
        }
      ],
      "stateMutability": "view",
      "type": "function",
      "constant": true
    },
    {
      "inputs": [
        {
          "internalType": "address",
          "name": "",
          "type": "address"
        }
      ],
      "name": "celebrities",
      "outputs": [
        {
          "internalType": "string",
          "name": "",
          "type": "string"
        }
      ],
      "stateMutability": "view",
      "type": "function",
      "constant": true
    },
    {
      "inputs": [
        {
          "internalType": "address",
          "name": "",
          "type": "address"
        }
      ],
      "name": "celebrityBeneficiaryChoice",
      "outputs": [
        {
          "internalType": "address",
          "name": "",
          "type": "address"
        }
      ],
      "stateMutability": "view",
      "type": "function",
      "constant": true
    },
    {
      "inputs": [
        {
          "internalType": "uint256",
          "name": "",
          "type": "uint256"
        }
      ],
      "name": "celebrityList",
      "outputs": [
        {
          "internalType": "address",
          "name": "",
          "type": "address"
        }
      ],
      "stateMutability": "view",
      "type": "function",
      "constant": true
    },
    {
      "inputs": [
        {
          "internalType": "uint256",
          "name": "",
          "type": "uint256"
        }
      ],
      "name": "deployedVideos",
      "outputs": [
        {
          "internalType": "uint256",
          "name": "videoId",
          "type": "uint256"
        },
        {
          "internalType": "address payable",
          "name": "celebrity",
          "type": "address"
        },
        {
          "internalType": "address payable",
          "name": "charity",
          "type": "address"
        },
        {
          "internalType": "address payable",
          "name": "donor",
          "type": "address"
        },
        {
          "internalType": "string",
          "name": "name_to",
          "type": "string"
        },
        {
          "internalType": "string",
          "name": "name_from",
          "type": "string"
        },
        {
          "internalType": "string",
          "name": "description",
          "type": "string"
        },
        {
          "internalType": "enum VideoContract.VideoStatus",
          "name": "status",
          "type": "uint8"
        },
        {
          "internalType": "string",
          "name": "video",
          "type": "string"
        },
        {
          "internalType": "uint256",
          "name": "donatedAmount",
          "type": "uint256"
        }
      ],
      "stateMutability": "view",
      "type": "function",
      "constant": true
    },
    {
      "inputs": [
        {
          "internalType": "uint256",
          "name": "",
          "type": "uint256"
        }
      ],
      "name": "orders",
      "outputs": [
        {
          "internalType": "uint256",
          "name": "videoId",
          "type": "uint256"
        },
        {
          "internalType": "address payable",
          "name": "celebrity",
          "type": "address"
        },
        {
          "internalType": "address payable",
          "name": "charity",
          "type": "address"
        },
        {
          "internalType": "address payable",
          "name": "donor",
          "type": "address"
        },
        {
          "internalType": "string",
          "name": "name_to",
          "type": "string"
        },
        {
          "internalType": "string",
          "name": "name_from",
          "type": "string"
        },
        {
          "internalType": "string",
          "name": "description",
          "type": "string"
        },
        {
          "internalType": "enum VideoContract.VideoStatus",
          "name": "status",
          "type": "uint8"
        },
        {
          "internalType": "string",
          "name": "video",
          "type": "string"
        },
        {
          "internalType": "uint256",
          "name": "donatedAmount",
          "type": "uint256"
        }
      ],
      "stateMutability": "view",
      "type": "function",
      "constant": true
    },
    {
      "inputs": [],
      "name": "owner",
      "outputs": [
        {
          "internalType": "address",
          "name": "",
          "type": "address"
        }
      ],
      "stateMutability": "view",
      "type": "function",
      "constant": true
    },
    {
      "inputs": [
        {
          "internalType": "uint256",
          "name": "",
          "type": "uint256"
        }
      ],
      "name": "registeredCelebrities",
      "outputs": [
        {
          "internalType": "uint256",
          "name": "id",
          "type": "uint256"
        },
        {
          "internalType": "address payable",
          "name": "celebrity",
          "type": "address"
        },
        {
          "internalType": "address payable",
          "name": "charity",
          "type": "address"
        },
        {
          "internalType": "string",
          "name": "description",
          "type": "string"
        },
        {
          "internalType": "string",
          "name": "image",
          "type": "string"
        },
        {
          "internalType": "string",
          "name": "name",
          "type": "string"
        },
        {
          "internalType": "string",
          "name": "title",
          "type": "string"
        }
      ],
      "stateMutability": "view",
      "type": "function",
      "constant": true
    },
    {
      "inputs": [
        {
          "internalType": "uint256",
          "name": "",
          "type": "uint256"
        }
      ],
      "name": "registeredCelebs",
      "outputs": [
        {
          "internalType": "uint256",
          "name": "id",
          "type": "uint256"
        },
        {
          "internalType": "address payable",
          "name": "celebrity",
          "type": "address"
        },
        {
          "internalType": "address payable",
          "name": "charity",
          "type": "address"
        },
        {
          "internalType": "string",
          "name": "description",
          "type": "string"
        },
        {
          "internalType": "string",
          "name": "image",
          "type": "string"
        },
        {
          "internalType": "string",
          "name": "name",
          "type": "string"
        },
        {
          "internalType": "string",
          "name": "title",
          "type": "string"
        }
      ],
      "stateMutability": "view",
      "type": "function",
      "constant": true
    },
    {
      "inputs": [],
      "name": "videoCount",
      "outputs": [
        {
          "internalType": "uint256",
          "name": "",
          "type": "uint256"
        }
      ],
      "stateMutability": "view",
      "type": "function",
      "constant": true
    },
    {
      "inputs": [
        {
          "internalType": "address",
          "name": "_address",
          "type": "address"
        },
        {
          "internalType": "string",
          "name": "_name",
          "type": "string"
        }
      ],
      "name": "addBeneficiary",
      "outputs": [],
      "stateMutability": "nonpayable",
      "type": "function"
    },
    {
      "inputs": [
        {
          "internalType": "address",
          "name": "_beneficiaryAddress",
          "type": "address"
        },
        {
          "internalType": "string",
          "name": "_name",
          "type": "string"
        }
      ],
      "name": "addCelebrity",
      "outputs": [],
      "stateMutability": "nonpayable",
      "type": "function"
    },
    {
      "inputs": [
        {
          "internalType": "address",
          "name": "_address",
          "type": "address"
        }
      ],
      "name": "deleteCelebrity",
      "outputs": [],
      "stateMutability": "nonpayable",
      "type": "function"
    },
    {
      "inputs": [
        {
          "internalType": "address",
          "name": "_address",
          "type": "address"
        }
      ],
      "name": "deleteBeneficiary",
      "outputs": [],
      "stateMutability": "nonpayable",
      "type": "function"
    },
    {
      "inputs": [
        {
          "internalType": "uint256",
          "name": "_index",
          "type": "uint256"
        }
      ],
      "name": "removeCeleb",
      "outputs": [],
      "stateMutability": "nonpayable",
      "type": "function"
    },
    {
      "inputs": [
        {
          "internalType": "address payable",
          "name": "_charity",
          "type": "address"
        },
        {
          "internalType": "string",
          "name": "_description",
          "type": "string"
        },
        {
          "internalType": "string",
          "name": "_image",
          "type": "string"
        },
        {
          "internalType": "string",
          "name": "_name",
          "type": "string"
        },
        {
          "internalType": "string",
          "name": "_title",
          "type": "string"
        }
      ],
      "name": "registerCelebrity",
      "outputs": [],
      "stateMutability": "payable",
      "type": "function",
      "payable": true
    },
    {
      "inputs": [],
      "name": "getCelebs",
      "outputs": [
        {
          "components": [
            {
              "internalType": "uint256",
              "name": "id",
              "type": "uint256"
            },
            {
              "internalType": "address payable",
              "name": "celebrity",
              "type": "address"
            },
            {
              "internalType": "address payable",
              "name": "charity",
              "type": "address"
            },
            {
              "internalType": "string",
              "name": "description",
              "type": "string"
            },
            {
              "internalType": "string",
              "name": "image",
              "type": "string"
            },
            {
              "internalType": "string",
              "name": "name",
              "type": "string"
            },
            {
              "internalType": "string",
              "name": "title",
              "type": "string"
            }
          ],
          "internalType": "struct VideoContract.Celebrity[]",
          "name": "",
          "type": "tuple[]"
        }
      ],
      "stateMutability": "view",
      "type": "function",
      "constant": true
    },
    {
      "inputs": [],
      "name": "getDeployedVideos",
      "outputs": [
        {
          "components": [
            {
              "internalType": "uint256",
              "name": "videoId",
              "type": "uint256"
            },
            {
              "internalType": "address payable",
              "name": "celebrity",
              "type": "address"
            },
            {
              "internalType": "address payable",
              "name": "charity",
              "type": "address"
            },
            {
              "internalType": "address payable",
              "name": "donor",
              "type": "address"
            },
            {
              "internalType": "string",
              "name": "name_to",
              "type": "string"
            },
            {
              "internalType": "string",
              "name": "name_from",
              "type": "string"
            },
            {
              "internalType": "string",
              "name": "description",
              "type": "string"
            },
            {
              "internalType": "enum VideoContract.VideoStatus",
              "name": "status",
              "type": "uint8"
            },
            {
              "internalType": "string",
              "name": "video",
              "type": "string"
            },
            {
              "internalType": "uint256",
              "name": "donatedAmount",
              "type": "uint256"
            }
          ],
          "internalType": "struct VideoContract.Video[]",
          "name": "",
          "type": "tuple[]"
        }
      ],
      "stateMutability": "view",
      "type": "function",
      "constant": true
    },
    {
      "inputs": [
        {
          "internalType": "address",
          "name": "_celebrity",
          "type": "address"
        },
        {
          "internalType": "address",
          "name": "_charity",
          "type": "address"
        },
        {
          "internalType": "string",
          "name": "_description",
          "type": "string"
        },
        {
          "internalType": "string",
          "name": "_nameTo",
          "type": "string"
        },
        {
          "internalType": "string",
          "name": "_nameFrom",
          "type": "string"
        },
        {
          "internalType": "uint256",
          "name": "_amount",
          "type": "uint256"
        }
      ],
      "name": "orderVideo",
      "outputs": [],
      "stateMutability": "payable",
      "type": "function",
      "payable": true
    },
    {
      "inputs": [
        {
          "internalType": "uint256",
          "name": "_id",
          "type": "uint256"
        },
        {
          "internalType": "address payable",
          "name": "_charity",
          "type": "address"
        },
        {
          "internalType": "string",
          "name": "_hash",
          "type": "string"
        }
      ],
      "name": "sendOrder",
      "outputs": [],
      "stateMutability": "payable",
      "type": "function",
      "payable": true
    },
    {
      "inputs": [
        {
          "internalType": "uint256",
          "name": "_id",
          "type": "uint256"
        }
      ],
      "name": "deleteOrder",
      "outputs": [],
      "stateMutability": "nonpayable",
      "type": "function"
    }
  ],
  "bytecode": "0x60806040526000600855600060095534801561001a57600080fd5b50336000806101000a81548173ffffffffffffffffffffffffffffffffffffffff021916908373ffffffffffffffffffffffffffffffffffffffff1602179055506132aa8061006a6000396000f3fe6080604052600436106101405760003560e01c80638da5cb5b116100b6578063b64e7a381161006f578063b64e7a38146104af578063c61b5f4c146104da578063c86080fe14610505578063cd3130d714610521578063ee131ab814610564578063fb26bfc11461058057610140565b80638da5cb5b146103745780639e761bbb1461039f578063a0c1adc2146103dc578063a85c38ef146103f8578063ab652ca71461043e578063ac367dad1461048457610140565b8063509d202c11610108578063509d202c1461024257806361eef08e1461027f5780636eea98af146102bc5780637d3bca76146102e5578063829ae7971461030e5780638909b7ac1461033757610140565b8063015677391461014557806311a0032714610182578063179f28f5146101ab5780631b90f304146101d657806332b578e514610219575b600080fd5b34801561015157600080fd5b5061016c60048036038101906101679190612843565b6105a9565b6040516101799190612ee4565b60405180910390f35b34801561018e57600080fd5b506101a960048036038101906101a49190612a68565b610659565b005b3480156101b757600080fd5b506101c06107ab565b6040516101cd9190612ec2565b60405180910390f35b3480156101e257600080fd5b506101fd60048036038101906101f89190612a68565b610bd6565b6040516102109796959493929190612fd9565b60405180910390f35b34801561022557600080fd5b50610240600480360381019061023b9190612a14565b610ec5565b005b34801561024e57600080fd5b5061026960048036038101906102649190612843565b610f80565b6040516102769190612ee4565b60405180910390f35b34801561028b57600080fd5b506102a660048036038101906102a19190612a68565b611030565b6040516102b39190612e85565b60405180910390f35b3480156102c857600080fd5b506102e360048036038101906102de9190612a14565b61106c565b005b3480156102f157600080fd5b5061030c60048036038101906103079190612843565b6111a5565b005b34801561031a57600080fd5b5061033560048036038101906103309190612843565b61124b565b005b34801561034357600080fd5b5061035e60048036038101906103599190612843565b611353565b60405161036b9190612e85565b60405180910390f35b34801561038057600080fd5b50610389611386565b6040516103969190612e85565b60405180910390f35b3480156103ab57600080fd5b506103c660048036038101906103c19190612a68565b6113aa565b6040516103d39190612e85565b60405180910390f35b6103f660048036038101906103f19190612a91565b6113e6565b005b34801561040457600080fd5b5061041f600480360381019061041a9190612a68565b6114c9565b6040516104359a99989796959493929190612f21565b60405180910390f35b34801561044a57600080fd5b5061046560048036038101906104609190612a68565b6117ea565b60405161047b9a99989796959493929190612f21565b60405180910390f35b34801561049057600080fd5b50610499611b18565b6040516104a69190612ea0565b60405180910390f35b3480156104bb57600080fd5b506104c4611eb5565b6040516104d19190612f06565b60405180910390f35b3480156104e657600080fd5b506104ef611ebb565b6040516104fc9190612f06565b60405180910390f35b61051f600480360381019061051a919061286c565b611ec1565b005b34801561052d57600080fd5b5061054860048036038101906105439190612a68565b61205e565b60405161055b9796959493929190612fd9565b60405180910390f35b61057e60048036038101906105799190612943565b612340565b005b34801561058c57600080fd5b506105a760048036038101906105a29190612a68565b6125c4565b005b60026020528060005260406000206000915090508054600181600116156101000203166002900480601f0160208091040260200160405190810160405280929190818152602001828054600181600116156101000203166002900480156106515780601f1061062657610100808354040283529160200191610651565b820191906000526020600020905b81548152906001019060200180831161063457829003601f168201915b505050505081565b60008054906101000a900473ffffffffffffffffffffffffffffffffffffffff1673ffffffffffffffffffffffffffffffffffffffff163373ffffffffffffffffffffffffffffffffffffffff16146106b157600080fd5b600a81815481106106be57fe5b90600052602060002090600a02016000808201600090556001820160006101000a81549073ffffffffffffffffffffffffffffffffffffffff02191690556002820160006101000a81549073ffffffffffffffffffffffffffffffffffffffff02191690556003820160006101000a81549073ffffffffffffffffffffffffffffffffffffffff021916905560048201600061075a91906126cb565b60058201600061076a91906126cb565b60068201600061077a91906126cb565b6007820160006101000a81549060ff021916905560088201600061079e91906126cb565b6009820160009055505050565b6060600a805480602002602001604051908101604052809291908181526020016000905b82821015610bcd57838290600052602060002090600a020160405180610140016040529081600082015481526020016001820160009054906101000a900473ffffffffffffffffffffffffffffffffffffffff1673ffffffffffffffffffffffffffffffffffffffff1673ffffffffffffffffffffffffffffffffffffffff1681526020016002820160009054906101000a900473ffffffffffffffffffffffffffffffffffffffff1673ffffffffffffffffffffffffffffffffffffffff1673ffffffffffffffffffffffffffffffffffffffff1681526020016003820160009054906101000a900473ffffffffffffffffffffffffffffffffffffffff1673ffffffffffffffffffffffffffffffffffffffff1673ffffffffffffffffffffffffffffffffffffffff168152602001600482018054600181600116156101000203166002900480601f0160208091040260200160405190810160405280929190818152602001828054600181600116156101000203166002900480156109985780601f1061096d57610100808354040283529160200191610998565b820191906000526020600020905b81548152906001019060200180831161097b57829003601f168201915b50505050508152602001600582018054600181600116156101000203166002900480601f016020809104026020016040519081016040528092919081815260200182805460018160011615610100020316600290048015610a3a5780601f10610a0f57610100808354040283529160200191610a3a565b820191906000526020600020905b815481529060010190602001808311610a1d57829003601f168201915b50505050508152602001600682018054600181600116156101000203166002900480601f016020809104026020016040519081016040528092919081815260200182805460018160011615610100020316600290048015610adc5780601f10610ab157610100808354040283529160200191610adc565b820191906000526020600020905b815481529060010190602001808311610abf57829003601f168201915b505050505081526020016007820160009054906101000a900460ff166001811115610b0357fe5b6001811115610b0e57fe5b8152602001600882018054600181600116156101000203166002900480601f016020809104026020016040519081016040528092919081815260200182805460018160011615610100020316600290048015610bab5780601f10610b8057610100808354040283529160200191610bab565b820191906000526020600020905b815481529060010190602001808311610b8e57829003601f168201915b50505050508152602001600982015481525050815260200190600101906107cf565b50505050905090565b600b8181548110610be357fe5b90600052602060002090600702016000915090508060000154908060010160009054906101000a900473ffffffffffffffffffffffffffffffffffffffff16908060020160009054906101000a900473ffffffffffffffffffffffffffffffffffffffff1690806003018054600181600116156101000203166002900480601f016020809104026020016040519081016040528092919081815260200182805460018160011615610100020316600290048015610ce15780601f10610cb657610100808354040283529160200191610ce1565b820191906000526020600020905b815481529060010190602001808311610cc457829003601f168201915b505050505090806004018054600181600116156101000203166002900480601f016020809104026020016040519081016040528092919081815260200182805460018160011615610100020316600290048015610d7f5780601f10610d5457610100808354040283529160200191610d7f565b820191906000526020600020905b815481529060010190602001808311610d6257829003601f168201915b505050505090806005018054600181600116156101000203166002900480601f016020809104026020016040519081016040528092919081815260200182805460018160011615610100020316600290048015610e1d5780601f10610df257610100808354040283529160200191610e1d565b820191906000526020600020905b815481529060010190602001808311610e0057829003601f168201915b505050505090806006018054600181600116156101000203166002900480601f016020809104026020016040519081016040528092919081815260200182805460018160011615610100020316600290048015610ebb5780601f10610e9057610100808354040283529160200191610ebb565b820191906000526020600020905b815481529060010190602001808311610e9e57829003601f168201915b5050505050905087565b80600260008473ffffffffffffffffffffffffffffffffffffffff1673ffffffffffffffffffffffffffffffffffffffff1681526020019081526020016000209080519060200190610f18929190612713565b506007829080600181540180825580915050600190039060005260206000200160009091909190916101000a81548173ffffffffffffffffffffffffffffffffffffffff021916908373ffffffffffffffffffffffffffffffffffffffff1602179055505050565b60016020528060005260406000206000915090508054600181600116156101000203166002900480601f0160208091040260200160405190810160405280929190818152602001828054600181600116156101000203166002900480156110285780601f10610ffd57610100808354040283529160200191611028565b820191906000526020600020905b81548152906001019060200180831161100b57829003601f168201915b505050505081565b6006818154811061103d57fe5b906000526020600020016000915054906101000a900473ffffffffffffffffffffffffffffffffffffffff1681565b80600160003373ffffffffffffffffffffffffffffffffffffffff1673ffffffffffffffffffffffffffffffffffffffff16815260200190815260200160002090805190602001906110bf929190612713565b506006339080600181540180825580915050600190039060005260206000200160009091909190916101000a81548173ffffffffffffffffffffffffffffffffffffffff021916908373ffffffffffffffffffffffffffffffffffffffff16021790555081600360003373ffffffffffffffffffffffffffffffffffffffff1673ffffffffffffffffffffffffffffffffffffffff16815260200190815260200160002060006101000a81548173ffffffffffffffffffffffffffffffffffffffff021916908373ffffffffffffffffffffffffffffffffffffffff1602179055505050565b60008054906101000a900473ffffffffffffffffffffffffffffffffffffffff1673ffffffffffffffffffffffffffffffffffffffff163373ffffffffffffffffffffffffffffffffffffffff16146111fd57600080fd5b600260008273ffffffffffffffffffffffffffffffffffffffff1673ffffffffffffffffffffffffffffffffffffffff168152602001908152602001600020600061124891906126cb565b50565b60008054906101000a900473ffffffffffffffffffffffffffffffffffffffff1673ffffffffffffffffffffffffffffffffffffffff163373ffffffffffffffffffffffffffffffffffffffff16146112a357600080fd5b600160008273ffffffffffffffffffffffffffffffffffffffff1673ffffffffffffffffffffffffffffffffffffffff16815260200190815260200160002060006112ee91906126cb565b600360008273ffffffffffffffffffffffffffffffffffffffff1673ffffffffffffffffffffffffffffffffffffffff16815260200190815260200160002060006101000a81549073ffffffffffffffffffffffffffffffffffffffff021916905550565b60036020528060005260406000206000915054906101000a900473ffffffffffffffffffffffffffffffffffffffff1681565b60008054906101000a900473ffffffffffffffffffffffffffffffffffffffff1681565b600781815481106113b757fe5b906000526020600020016000915054906101000a900473ffffffffffffffffffffffffffffffffffffffff1681565b80600a84815481106113f457fe5b90600052602060002090600a02016008019080519060200190611418929190612713565b506001600a848154811061142857fe5b90600052602060002090600a020160070160006101000a81548160ff0219169083600181111561145457fe5b02179055506000600a848154811061146857fe5b90600052602060002090600a02016009015490508273ffffffffffffffffffffffffffffffffffffffff166108fc829081150290604051600060405180830381858888f193505050501580156114c2573d6000803e3d6000fd5b5050505050565b60056020528060005260406000206000915090508060000154908060010160009054906101000a900473ffffffffffffffffffffffffffffffffffffffff16908060020160009054906101000a900473ffffffffffffffffffffffffffffffffffffffff16908060030160009054906101000a900473ffffffffffffffffffffffffffffffffffffffff1690806004018054600181600116156101000203166002900480601f0160208091040260200160405190810160405280929190818152602001828054600181600116156101000203166002900480156115ed5780601f106115c2576101008083540402835291602001916115ed565b820191906000526020600020905b8154815290600101906020018083116115d057829003601f168201915b505050505090806005018054600181600116156101000203166002900480601f01602080910402602001604051908101604052809291908181526020018280546001816001161561010002031660029004801561168b5780601f106116605761010080835404028352916020019161168b565b820191906000526020600020905b81548152906001019060200180831161166e57829003601f168201915b505050505090806006018054600181600116156101000203166002900480601f0160208091040260200160405190810160405280929190818152602001828054600181600116156101000203166002900480156117295780601f106116fe57610100808354040283529160200191611729565b820191906000526020600020905b81548152906001019060200180831161170c57829003601f168201915b5050505050908060070160009054906101000a900460ff1690806008018054600181600116156101000203166002900480601f0160208091040260200160405190810160405280929190818152602001828054600181600116156101000203166002900480156117da5780601f106117af576101008083540402835291602001916117da565b820191906000526020600020905b8154815290600101906020018083116117bd57829003601f168201915b505050505090806009015490508a565b600a81815481106117f757fe5b90600052602060002090600a02016000915090508060000154908060010160009054906101000a900473ffffffffffffffffffffffffffffffffffffffff16908060020160009054906101000a900473ffffffffffffffffffffffffffffffffffffffff16908060030160009054906101000a900473ffffffffffffffffffffffffffffffffffffffff1690806004018054600181600116156101000203166002900480601f01602080910402602001604051908101604052809291908181526020018280546001816001161561010002031660029004801561191b5780601f106118f05761010080835404028352916020019161191b565b820191906000526020600020905b8154815290600101906020018083116118fe57829003601f168201915b505050505090806005018054600181600116156101000203166002900480601f0160208091040260200160405190810160405280929190818152602001828054600181600116156101000203166002900480156119b95780601f1061198e576101008083540402835291602001916119b9565b820191906000526020600020905b81548152906001019060200180831161199c57829003601f168201915b505050505090806006018054600181600116156101000203166002900480601f016020809104026020016040519081016040528092919081815260200182805460018160011615610100020316600290048015611a575780601f10611a2c57610100808354040283529160200191611a57565b820191906000526020600020905b815481529060010190602001808311611a3a57829003601f168201915b5050505050908060070160009054906101000a900460ff1690806008018054600181600116156101000203166002900480601f016020809104026020016040519081016040528092919081815260200182805460018160011615610100020316600290048015611b085780601f10611add57610100808354040283529160200191611b08565b820191906000526020600020905b815481529060010190602001808311611aeb57829003601f168201915b505050505090806009015490508a565b6060600b805480602002602001604051908101604052809291908181526020016000905b82821015611eac57838290600052602060002090600702016040518060e0016040529081600082015481526020016001820160009054906101000a900473ffffffffffffffffffffffffffffffffffffffff1673ffffffffffffffffffffffffffffffffffffffff1673ffffffffffffffffffffffffffffffffffffffff1681526020016002820160009054906101000a900473ffffffffffffffffffffffffffffffffffffffff1673ffffffffffffffffffffffffffffffffffffffff1673ffffffffffffffffffffffffffffffffffffffff168152602001600382018054600181600116156101000203166002900480601f016020809104026020016040519081016040528092919081815260200182805460018160011615610100020316600290048015611cae5780601f10611c8357610100808354040283529160200191611cae565b820191906000526020600020905b815481529060010190602001808311611c9157829003601f168201915b50505050508152602001600482018054600181600116156101000203166002900480601f016020809104026020016040519081016040528092919081815260200182805460018160011615610100020316600290048015611d505780601f10611d2557610100808354040283529160200191611d50565b820191906000526020600020905b815481529060010190602001808311611d3357829003601f168201915b50505050508152602001600582018054600181600116156101000203166002900480601f016020809104026020016040519081016040528092919081815260200182805460018160011615610100020316600290048015611df25780601f10611dc757610100808354040283529160200191611df2565b820191906000526020600020905b815481529060010190602001808311611dd557829003601f168201915b50505050508152602001600682018054600181600116156101000203166002900480601f016020809104026020016040519081016040528092919081815260200182805460018160011615610100020316600290048015611e945780601f10611e6957610100808354040283529160200191611e94565b820191906000526020600020905b815481529060010190602001808311611e7757829003601f168201915b50505050508152505081526020019060010190611b3c565b50505050905090565b60095481565b60085481565b6040518060e0016040528060095481526020013373ffffffffffffffffffffffffffffffffffffffff1681526020018673ffffffffffffffffffffffffffffffffffffffff168152602001858152602001848152602001838152602001828152506004600060095481526020019081526020016000206000820151816000015560208201518160010160006101000a81548173ffffffffffffffffffffffffffffffffffffffff021916908373ffffffffffffffffffffffffffffffffffffffff16021790555060408201518160020160006101000a81548173ffffffffffffffffffffffffffffffffffffffff021916908373ffffffffffffffffffffffffffffffffffffffff1602179055506060820151816003019080519060200190611feb929190612713565b506080820151816004019080519060200190612008929190612713565b5060a0820151816005019080519060200190612025929190612713565b5060c0820151816006019080519060200190612042929190612713565b5090505060016009600082825401925050819055505050505050565b60046020528060005260406000206000915090508060000154908060010160009054906101000a900473ffffffffffffffffffffffffffffffffffffffff16908060020160009054906101000a900473ffffffffffffffffffffffffffffffffffffffff1690806003018054600181600116156101000203166002900480601f01602080910402602001604051908101604052809291908181526020018280546001816001161561010002031660029004801561215c5780601f106121315761010080835404028352916020019161215c565b820191906000526020600020905b81548152906001019060200180831161213f57829003601f168201915b505050505090806004018054600181600116156101000203166002900480601f0160208091040260200160405190810160405280929190818152602001828054600181600116156101000203166002900480156121fa5780601f106121cf576101008083540402835291602001916121fa565b820191906000526020600020905b8154815290600101906020018083116121dd57829003601f168201915b505050505090806005018054600181600116156101000203166002900480601f0160208091040260200160405190810160405280929190818152602001828054600181600116156101000203166002900480156122985780601f1061226d57610100808354040283529160200191612298565b820191906000526020600020905b81548152906001019060200180831161227b57829003601f168201915b505050505090806006018054600181600116156101000203166002900480601f0160208091040260200160405190810160405280929190818152602001828054600181600116156101000203166002900480156123365780601f1061230b57610100808354040283529160200191612336565b820191906000526020600020905b81548152906001019060200180831161231957829003601f168201915b5050505050905087565b60405180610140016040528060085481526020018773ffffffffffffffffffffffffffffffffffffffff1681526020018673ffffffffffffffffffffffffffffffffffffffff1681526020013373ffffffffffffffffffffffffffffffffffffffff168152602001848152602001838152602001858152602001600060018111156123c757fe5b81526020016040518060400160405280600181526020017f30000000000000000000000000000000000000000000000000000000000000008152508152602001828152506005600060085481526020019081526020016000206000820151816000015560208201518160010160006101000a81548173ffffffffffffffffffffffffffffffffffffffff021916908373ffffffffffffffffffffffffffffffffffffffff16021790555060408201518160020160006101000a81548173ffffffffffffffffffffffffffffffffffffffff021916908373ffffffffffffffffffffffffffffffffffffffff16021790555060608201518160030160006101000a81548173ffffffffffffffffffffffffffffffffffffffff021916908373ffffffffffffffffffffffffffffffffffffffff160217905550608082015181600401908051906020019061251b929190612713565b5060a0820151816005019080519060200190612538929190612713565b5060c0820151816006019080519060200190612555929190612713565b5060e08201518160070160006101000a81548160ff0219169083600181111561257a57fe5b021790555061010082015181600801908051906020019061259c929190612713565b5061012082015181600901559050506001600860008282540192505081905550505050505050565b60008054906101000a900473ffffffffffffffffffffffffffffffffffffffff1673ffffffffffffffffffffffffffffffffffffffff163373ffffffffffffffffffffffffffffffffffffffff161461261c57600080fd5b600460008281526020019081526020016000206000808201600090556001820160006101000a81549073ffffffffffffffffffffffffffffffffffffffff02191690556002820160006101000a81549073ffffffffffffffffffffffffffffffffffffffff021916905560038201600061269691906126cb565b6004820160006126a691906126cb565b6005820160006126b691906126cb565b6006820160006126c691906126cb565b505050565b50805460018160011615610100020316600290046000825580601f106126f15750612710565b601f01602090049060005260206000209081019061270f9190612793565b5b50565b828054600181600116156101000203166002900490600052602060002090601f016020900481019282601f1061275457805160ff1916838001178555612782565b82800160010185558215612782579182015b82811115612781578251825591602001919060010190612766565b5b50905061278f9190612793565b5090565b5b808211156127ac576000816000905550600101612794565b5090565b6000813590506127bf8161322f565b92915050565b6000813590506127d481613246565b92915050565b600082601f8301126127eb57600080fd5b81356127fe6127f982613091565b613064565b9150808252602083016020830185838301111561281a57600080fd5b6128258382846131cf565b50505092915050565b60008135905061283d8161325d565b92915050565b60006020828403121561285557600080fd5b6000612863848285016127b0565b91505092915050565b600080600080600060a0868803121561288457600080fd5b6000612892888289016127c5565b955050602086013567ffffffffffffffff8111156128af57600080fd5b6128bb888289016127da565b945050604086013567ffffffffffffffff8111156128d857600080fd5b6128e4888289016127da565b935050606086013567ffffffffffffffff81111561290157600080fd5b61290d888289016127da565b925050608086013567ffffffffffffffff81111561292a57600080fd5b612936888289016127da565b9150509295509295909350565b60008060008060008060c0878903121561295c57600080fd5b600061296a89828a016127b0565b965050602061297b89828a016127b0565b955050604087013567ffffffffffffffff81111561299857600080fd5b6129a489828a016127da565b945050606087013567ffffffffffffffff8111156129c157600080fd5b6129cd89828a016127da565b935050608087013567ffffffffffffffff8111156129ea57600080fd5b6129f689828a016127da565b92505060a0612a0789828a0161282e565b9150509295509295509295565b60008060408385031215612a2757600080fd5b6000612a35858286016127b0565b925050602083013567ffffffffffffffff811115612a5257600080fd5b612a5e858286016127da565b9150509250929050565b600060208284031215612a7a57600080fd5b6000612a888482850161282e565b91505092915050565b600080600060608486031215612aa657600080fd5b6000612ab48682870161282e565b9350506020612ac5868287016127c5565b925050604084013567ffffffffffffffff811115612ae257600080fd5b612aee868287016127da565b9150509250925092565b6000612b048383612cc7565b905092915050565b6000612b188383612d78565b905092915050565b612b298161316e565b82525050565b612b388161316e565b82525050565b612b478161315c565b82525050565b6000612b58826130dd565b612b628185613118565b935083602082028501612b74856130bd565b8060005b85811015612bb05784840389528151612b918582612af8565b9450612b9c836130fe565b925060208a01995050600181019050612b78565b50829750879550505050505092915050565b6000612bcd826130e8565b612bd78185613129565b935083602082028501612be9856130cd565b8060005b85811015612c255784840389528151612c068582612b0c565b9450612c118361310b565b925060208a01995050600181019050612bed565b50829750879550505050505092915050565b612c40816131bd565b82525050565b612c4f816131bd565b82525050565b6000612c60826130f3565b612c6a818561313a565b9350612c7a8185602086016131de565b612c8381613211565b840191505092915050565b6000612c99826130f3565b612ca3818561314b565b9350612cb38185602086016131de565b612cbc81613211565b840191505092915050565b600060e083016000830151612cdf6000860182612e67565b506020830151612cf26020860182612b20565b506040830151612d056040860182612b20565b5060608301518482036060860152612d1d8282612c55565b91505060808301518482036080860152612d378282612c55565b91505060a083015184820360a0860152612d518282612c55565b91505060c083015184820360c0860152612d6b8282612c55565b9150508091505092915050565b600061014083016000830151612d916000860182612e67565b506020830151612da46020860182612b20565b506040830151612db76040860182612b20565b506060830151612dca6060860182612b20565b5060808301518482036080860152612de28282612c55565b91505060a083015184820360a0860152612dfc8282612c55565b91505060c083015184820360c0860152612e168282612c55565b91505060e0830151612e2b60e0860182612c37565b50610100830151848203610100860152612e458282612c55565b915050610120830151612e5c610120860182612e67565b508091505092915050565b612e70816131b3565b82525050565b612e7f816131b3565b82525050565b6000602082019050612e9a6000830184612b3e565b92915050565b60006020820190508181036000830152612eba8184612b4d565b905092915050565b60006020820190508181036000830152612edc8184612bc2565b905092915050565b60006020820190508181036000830152612efe8184612c8e565b905092915050565b6000602082019050612f1b6000830184612e76565b92915050565b600061014082019050612f37600083018d612e76565b612f44602083018c612b2f565b612f51604083018b612b2f565b612f5e606083018a612b2f565b8181036080830152612f708189612c8e565b905081810360a0830152612f848188612c8e565b905081810360c0830152612f988187612c8e565b9050612fa760e0830186612c46565b818103610100830152612fba8185612c8e565b9050612fca610120830184612e76565b9b9a5050505050505050505050565b600060e082019050612fee600083018a612e76565b612ffb6020830189612b2f565b6130086040830188612b2f565b818103606083015261301a8187612c8e565b9050818103608083015261302e8186612c8e565b905081810360a08301526130428185612c8e565b905081810360c08301526130568184612c8e565b905098975050505050505050565b6000604051905081810181811067ffffffffffffffff8211171561308757600080fd5b8060405250919050565b600067ffffffffffffffff8211156130a857600080fd5b601f19601f8301169050602081019050919050565b6000819050602082019050919050565b6000819050602082019050919050565b600081519050919050565b600081519050919050565b600081519050919050565b6000602082019050919050565b6000602082019050919050565b600082825260208201905092915050565b600082825260208201905092915050565b600082825260208201905092915050565b600082825260208201905092915050565b600061316782613193565b9050919050565b600061317982613193565b9050919050565b600081905061318e82613222565b919050565b600073ffffffffffffffffffffffffffffffffffffffff82169050919050565b6000819050919050565b60006131c882613180565b9050919050565b82818337600083830152505050565b60005b838110156131fc5780820151818401526020810190506131e1565b8381111561320b576000848401525b50505050565b6000601f19601f8301169050919050565b6002811061322c57fe5b50565b6132388161315c565b811461324357600080fd5b50565b61324f8161316e565b811461325a57600080fd5b50565b613266816131b3565b811461327157600080fd5b5056fea26469706673582212206b55ffc6864e6a474a7ff02ed7670ee6c193030f899188542a0270f7b1789e8764736f6c634300060c0033",
  "immutableReferences": {},
  "source": "//SPDX-License-Identifier: MIT\npragma solidity >=0.6.0 <0.7.0;\npragma experimental ABIEncoderV2;\n\n\n//To do:\n// [] 1. Update Celebrity\n// [] 2. Only Celeb can update and send videos\n// [] 3. Create a relationship between Celeb and Video: https://medium.com/robhitchens/enforcing-referential-integrity-in-ethereum-smart-contracts-a9ab1427ff42\ncontract VideoContract {\n    //owner of contract\n    address public owner;\n\n    //onlyOwner modifier\n    modifier onlyOwner {\n        require(msg.sender == owner);\n        _;\n    }\n\n    constructor() public {\n        owner = msg.sender;\n    }\n\n    //1_Registration by owner\n    //Registration variables\n    //NOTE: mapping cannot have address payable, has to be cast to payable when needed\n    mapping (address => string) public celebrities;\n    mapping (address => string) public beneficiaries;\n    mapping (address => address) public celebrityBeneficiaryChoice;\n    mapping (uint => Celebrity) public registeredCelebs;\n    mapping (uint => Video) public orders;\n\n    //array to store celebrity and beneficiary list\n    address[] public celebrityList;\n    address[] public beneficiaryList;\n\n    //Function for beneficiary to register\n    function addBeneficiary(address _address, string memory _name) public {\n        beneficiaries[_address] = _name;\n        beneficiaryList.push(_address);\n    }\n\n    //Function for celebrity register, and he is only able to select from registered beneficiary list above\n    function addCelebrity(address _beneficiaryAddress, string memory _name ) public {\n\n        celebrities[msg.sender] = _name;\n        celebrityList.push(msg.sender);\n\n        //add mapping of celebrity's choice of beneficiary\n        celebrityBeneficiaryChoice[msg.sender] = _beneficiaryAddress;\n    }\n\n    //functions to delete celebrities/beneficiaries\n    function deleteCelebrity(address _address) public onlyOwner{\n        delete celebrities[_address];\n        delete celebrityBeneficiaryChoice[_address];\n    }\n\n    function deleteBeneficiary(address _address) public onlyOwner {\n        delete beneficiaries[_address];\n    }\n\n    function removeCeleb(uint _index) public onlyOwner {\n        delete registeredCelebs[_index];\n    }\n\n    //2_Video variables:\n    // enum for video status\n    //struct for video properties\n    //video array to store all video orders\n\n    enum VideoStatus { New, Done }\n\n    uint public videoCount = 0;\n    uint public celebCount = 0;\n\n    struct Video {\n        uint videoId; //pointer\n        address payable celebrity;\n        address payable charity;\n        address payable donor;\n        string name_to;\n        string name_from;\n        string description;\n        VideoStatus status;\n        string video;\n        uint donatedAmount;\n    }\n\n\n    //also needs to add charity?\n    struct Celebrity {\n        uint id;\n        address payable celebrity;\n        address payable charity;\n        string description;\n        string image;\n        string name;\n        string title;\n    }\n\n    Video[] public deployedVideos;\n    Celebrity[] public registeredCelebrities;\n\n    /*\n    function registerCelebrity(address payable _charity, string memory _description, string memory _image) public payable {\n        Celebrity memory newCeleb = Celebrity({\n           id: celebCount,\n           celebrity: msg.sender,\n           charity: _charity,\n           description: _description,\n           image: _image\n        });\n        registeredCelebrities.push(newCeleb);\n        celebCount += 1;\n    }*/\n\n    function registerCelebrity(address payable _charity, string memory _description, string memory _image, string memory _name, string memory _title) public payable {\n        /*\n        Celebrity memory newCeleb = Celebrity({\n           id: celebCount,\n           celebrity: msg.sender,\n           charity: _charity,\n           description: _description,\n           image: _image\n        });*/\n        //registeredCelebrities.push(newCeleb);\n        registeredCelebs[celebCount] = Celebrity(celebCount, msg.sender, _charity, _description, _image, _name, _title);\n        celebCount += 1;\n    }\n\n    function getCelebs() public view returns (Celebrity[] memory) {\n        return registeredCelebrities;\n    }\n\n    function getDeployedVideos() public view returns (Video[] memory) {\n        return deployedVideos;\n    }\n\n\n    function orderVideo(\n                    address _celebrity,\n                    address _charity,\n                    string memory _description,\n                    string memory _nameTo,\n                    string memory _nameFrom,\n                    uint _amount\n                    )\n                    public payable {\n\n        orders[videoCount] = Video(videoCount,\n                                    payable(_celebrity),\n                                    payable(_charity),\n                                    payable(msg.sender),\n                                    _nameTo,\n                                    _nameFrom,\n                                    _description,\n                                    VideoStatus.New,\n                                    \"0\",\n                                    _amount\n                                    );\n        //deployedVideos.push(newVideo);\n        videoCount += 1;\n    }\n\n    /**\n     * Function for people to order a video\n     * x the new value to store\n     * stores the number in the state variable 'storedData'\n    */\n    /* function orderVideo(address payable _celebrity, string memory _description, uint _amount, string memory _nameTo, string memory _nameFrom) public payable {\n\n        address payable videoBeneficiary = payable(celebrityBeneficiaryChoice[_celebrity]);\n\n        Video memory newVideo = Video({ //memory because it's a new instance of Request\n           id: videoCount,\n           celebrity: _celebrity,\n           donater: msg.sender,\n           beneficiary: videoBeneficiary,\n           description: _description,\n           name_to: _nameTo,\n           name_from: _nameFrom,\n           status: VideoStatus.New,\n           video: '0',\n           donatedAmount: _amount\n        });\n        deployedVideos.push(newVideo);\n        videoCount += 1;\n    } */\n\n    //Function to update video status and donate to beneficiary\n    //front end to pass which video was selected.\n    function sendOrder(uint _id, address payable _charity, string memory _hash) public payable {\n\n       //convert msg.sender to address payable from mapping\n        //address payable videoBeneficiary = payable(celebrityBeneficiaryChoice[msg.sender]);\n\n       //update video struct\n        deployedVideos[_id].video = _hash;\n        deployedVideos[_id].status = VideoStatus.Done;\n\n        uint donation = deployedVideos[_id].donatedAmount;\n\n       //send donation to _beneficiary\n        _charity.transfer(donation); //fix\n    }\n\n    //function to delete orders\n    function deleteOrder(uint _id) public onlyOwner {\n        delete deployedVideos[_id];\n    }\n}\n",
  "sourcePath": "/Users/filipsundgren/Projects/Ethereum/dapp/contracts/VideoContract.sol",
  "compiler": {
    "name": "solc",
    "version": "0.6.12+commit.27d51765.Emscripten.clang"
  },
  "schemaVersion": "3.1.0",
  "updatedAt": "2021-02-11T16:50:53.270Z",
  "networkType": "ethereum",
  "devdoc": {
    "kind": "dev",
    "methods": {},
    "version": 1
  },
  "userdoc": {
    "kind": "user",
    "methods": {
      "sendOrder(uint256,address,string)": {
        "notice": "Function for people to order a video x the new value to store stores the number in the state variable 'storedData'"
      }
    },
    "version": 1
  }
}