{
  "contractName": "VideoContract",
  "abi": [
    {
      "inputs": [],
      "stateMutability": "nonpayable",
      "type": "constructor"
    },
    {
      "anonymous": false,
      "inputs": [
        {
          "indexed": false,
          "internalType": "uint256",
          "name": "id",
          "type": "uint256"
        },
        {
          "indexed": false,
          "internalType": "address",
          "name": "charity",
          "type": "address"
        },
        {
          "indexed": false,
          "internalType": "uint256",
          "name": "amount",
          "type": "uint256"
        },
        {
          "indexed": false,
          "internalType": "string",
          "name": "video",
          "type": "string"
        }
      ],
      "name": "DeliverySent",
      "type": "event"
    },
    {
      "anonymous": false,
      "inputs": [
        {
          "indexed": false,
          "internalType": "uint256",
          "name": "id",
          "type": "uint256"
        },
        {
          "indexed": false,
          "internalType": "address",
          "name": "charity",
          "type": "address"
        },
        {
          "indexed": false,
          "internalType": "string",
          "name": "description",
          "type": "string"
        },
        {
          "indexed": false,
          "internalType": "string",
          "name": "title",
          "type": "string"
        },
        {
          "indexed": false,
          "internalType": "string",
          "name": "name",
          "type": "string"
        },
        {
          "indexed": false,
          "internalType": "string",
          "name": "image",
          "type": "string"
        }
      ],
      "name": "UpdatedUser",
      "type": "event"
    },
    {
      "inputs": [],
      "name": "celebCount",
      "outputs": [
        {
          "internalType": "uint256",
          "name": "",
          "type": "uint256"
        }
      ],
      "stateMutability": "view",
      "type": "function",
      "constant": true
    },
    {
      "inputs": [
        {
          "internalType": "uint256",
          "name": "",
          "type": "uint256"
        }
      ],
      "name": "orders",
      "outputs": [
        {
          "internalType": "uint256",
          "name": "videoId",
          "type": "uint256"
        },
        {
          "internalType": "address payable",
          "name": "celebrity",
          "type": "address"
        },
        {
          "internalType": "address payable",
          "name": "charity",
          "type": "address"
        },
        {
          "internalType": "address payable",
          "name": "donor",
          "type": "address"
        },
        {
          "internalType": "string",
          "name": "name_to",
          "type": "string"
        },
        {
          "internalType": "string",
          "name": "name_from",
          "type": "string"
        },
        {
          "internalType": "string",
          "name": "description",
          "type": "string"
        },
        {
          "internalType": "enum VideoContract.VideoStatus",
          "name": "status",
          "type": "uint8"
        },
        {
          "internalType": "string",
          "name": "video",
          "type": "string"
        },
        {
          "internalType": "uint256",
          "name": "order_date",
          "type": "uint256"
        },
        {
          "internalType": "uint256",
          "name": "delivery_date",
          "type": "uint256"
        },
        {
          "internalType": "uint256",
          "name": "donatedAmount",
          "type": "uint256"
        }
      ],
      "stateMutability": "view",
      "type": "function",
      "constant": true
    },
    {
      "inputs": [],
      "name": "owner",
      "outputs": [
        {
          "internalType": "address",
          "name": "",
          "type": "address"
        }
      ],
      "stateMutability": "view",
      "type": "function",
      "constant": true
    },
    {
      "inputs": [
        {
          "internalType": "uint256",
          "name": "",
          "type": "uint256"
        }
      ],
      "name": "registeredCelebs",
      "outputs": [
        {
          "internalType": "uint256",
          "name": "id",
          "type": "uint256"
        },
        {
          "internalType": "address payable",
          "name": "celebrity",
          "type": "address"
        },
        {
          "internalType": "address payable",
          "name": "charity",
          "type": "address"
        },
        {
          "internalType": "string",
          "name": "description",
          "type": "string"
        },
        {
          "internalType": "string",
          "name": "title",
          "type": "string"
        },
        {
          "internalType": "string",
          "name": "name",
          "type": "string"
        },
        {
          "internalType": "string",
          "name": "image",
          "type": "string"
        }
      ],
      "stateMutability": "view",
      "type": "function",
      "constant": true
    },
    {
      "inputs": [
        {
          "internalType": "address payable",
          "name": "_charity",
          "type": "address"
        },
        {
          "internalType": "string",
          "name": "_description",
          "type": "string"
        },
        {
          "internalType": "string",
          "name": "_title",
          "type": "string"
        },
        {
          "internalType": "string",
          "name": "_name",
          "type": "string"
        },
        {
          "internalType": "string",
          "name": "_image",
          "type": "string"
        }
      ],
      "name": "registerCelebrity",
      "outputs": [],
      "stateMutability": "payable",
      "type": "function",
      "payable": true
    },
    {
      "inputs": [
        {
          "internalType": "address payable",
          "name": "_celebrity",
          "type": "address"
        },
        {
          "internalType": "address payable",
          "name": "_charity",
          "type": "address"
        },
        {
          "internalType": "string",
          "name": "_description",
          "type": "string"
        },
        {
          "internalType": "string",
          "name": "_nameTo",
          "type": "string"
        },
        {
          "internalType": "string",
          "name": "_nameFrom",
          "type": "string"
        },
        {
          "internalType": "uint256",
          "name": "_amount",
          "type": "uint256"
        }
      ],
      "name": "orderVideo",
      "outputs": [],
      "stateMutability": "payable",
      "type": "function",
      "payable": true
    },
    {
      "inputs": [
        {
          "internalType": "uint256",
          "name": "_id",
          "type": "uint256"
        },
        {
          "internalType": "string",
          "name": "_hash",
          "type": "string"
        }
      ],
      "name": "sendOrder",
      "outputs": [
        {
          "internalType": "bool",
          "name": "success",
          "type": "bool"
        }
      ],
      "stateMutability": "payable",
      "type": "function",
      "payable": true
    },
    {
      "inputs": [
        {
          "internalType": "uint256",
          "name": "_id",
          "type": "uint256"
        },
        {
          "internalType": "address payable",
          "name": "_charity",
          "type": "address"
        },
        {
          "internalType": "string",
          "name": "_description",
          "type": "string"
        },
        {
          "internalType": "string",
          "name": "_title",
          "type": "string"
        },
        {
          "internalType": "string",
          "name": "_name",
          "type": "string"
        },
        {
          "internalType": "string",
          "name": "_image",
          "type": "string"
        }
      ],
      "name": "updateUser",
      "outputs": [
        {
          "internalType": "bool",
          "name": "succeess",
          "type": "bool"
        }
      ],
      "stateMutability": "nonpayable",
      "type": "function"
    },
    {
      "inputs": [
        {
          "internalType": "uint256",
          "name": "_id",
          "type": "uint256"
        }
      ],
      "name": "deleteOrder",
      "outputs": [
        {
          "internalType": "bool",
          "name": "success",
          "type": "bool"
        }
      ],
      "stateMutability": "payable",
      "type": "function",
      "payable": true
    },
    {
      "inputs": [
        {
          "internalType": "uint256",
          "name": "_id",
          "type": "uint256"
        }
      ],
      "name": "deleteCelebrity",
      "outputs": [
        {
          "internalType": "bool",
          "name": "success",
          "type": "bool"
        }
      ],
      "stateMutability": "nonpayable",
      "type": "function"
    }
  ],
  "bytecode": "0x60806040526000600355600060045534801561001a57600080fd5b50336000806101000a81548173ffffffffffffffffffffffffffffffffffffffff021916908373ffffffffffffffffffffffffffffffffffffffff1602179055506121768061006a6000396000f3fe6080604052600436106100915760003560e01c8063c86080fe11610059578063c86080fe14610194578063cd3130d7146101b0578063d0755a3f146101f3578063d4da6bc914610230578063ee131ab81461026d57610091565b806311a0032714610096578063775b9cb5146100c65780638da5cb5b146100f6578063a85c38ef14610121578063b64e7a3814610169575b600080fd5b6100b060048036038101906100ab91906118d6565b610289565b6040516100bd9190611ca8565b60405180910390f35b6100e060048036038101906100db91906119e8565b61058c565b6040516100ed9190611ca8565b60405180910390f35b34801561010257600080fd5b5061010b610848565b6040516101189190611c8d565b60405180910390f35b34801561012d57600080fd5b50610148600480360381019061014391906118d6565b61086c565b6040516101609c9b9a99989796959493929190611d5e565b60405180910390f35b34801561017557600080fd5b5061017e610b99565b60405161018b9190611d43565b60405180910390f35b6101ae60048036038101906101a991906117ff565b610b9f565b005b3480156101bc57600080fd5b506101d760048036038101906101d291906118d6565b610d3c565b6040516101ea9796959493929190611e34565b60405180910390f35b3480156101ff57600080fd5b5061021a600480360381019061021591906118d6565b61101e565b6040516102279190611ca8565b60405180910390f35b34801561023c57600080fd5b50610257600480360381019061025291906118ff565b61112e565b6040516102649190611ca8565b60405180910390f35b6102876004803603810190610282919061172e565b611324565b005b60003373ffffffffffffffffffffffffffffffffffffffff166002600084815260200190815260200160002060030160009054906101000a900473ffffffffffffffffffffffffffffffffffffffff1673ffffffffffffffffffffffffffffffffffffffff16148061034657503373ffffffffffffffffffffffffffffffffffffffff1660008054906101000a900473ffffffffffffffffffffffffffffffffffffffff1673ffffffffffffffffffffffffffffffffffffffff16145b806103b257503373ffffffffffffffffffffffffffffffffffffffff166002600084815260200190815260200160002060010160009054906101000a900473ffffffffffffffffffffffffffffffffffffffff1673ffffffffffffffffffffffffffffffffffffffff16145b6103f1576040517f08c379a00000000000000000000000000000000000000000000000000000000081526004016103e890611cc3565b60405180910390fd5b6002600083815260200190815260200160002060030160009054906101000a900473ffffffffffffffffffffffffffffffffffffffff1673ffffffffffffffffffffffffffffffffffffffff166108fc60026000858152602001908152602001600020600b01549081150290604051600060405180830381858888f19350505050158015610483573d6000803e3d6000fd5b50600260008381526020019081526020016000206000808201600090556001820160006101000a81549073ffffffffffffffffffffffffffffffffffffffff02191690556002820160006101000a81549073ffffffffffffffffffffffffffffffffffffffff02191690556003820160006101000a81549073ffffffffffffffffffffffffffffffffffffffff021916905560048201600061052591906115cb565b60058201600061053591906115cb565b60068201600061054591906115cb565b6007820160006101000a81549060ff021916905560088201600061056991906115cb565b6009820160009055600a820160009055600b820160009055505060019050919050565b600060018081111561059a57fe5b6002600085815260200190815260200160002060070160009054906101000a900460ff1660018111156105c957fe5b141561060a576040517f08c379a000000000000000000000000000000000000000000000000000000000815260040161060190611d03565b60405180910390fd5b6002600084815260200190815260200160002060010160009054906101000a900473ffffffffffffffffffffffffffffffffffffffff1673ffffffffffffffffffffffffffffffffffffffff163373ffffffffffffffffffffffffffffffffffffffff16146106ae576040517f08c379a00000000000000000000000000000000000000000000000000000000081526004016106a590611d23565b60405180910390fd5b60016002600085815260200190815260200160002060070160006101000a81548160ff021916908360018111156106e157fe5b021790555081600260008581526020019081526020016000206008019080519060200190610710929190611613565b504260026000858152602001908152602001600020600a0181905550600060026000858152602001908152602001600020600b0154905060006002600086815260200190815260200160002060020160009054906101000a900473ffffffffffffffffffffffffffffffffffffffff1690508073ffffffffffffffffffffffffffffffffffffffff166108fc839081150290604051600060405180830381858888f193505050501580156107c8573d6000803e3d6000fd5b507f58d9a19bbd655c57e6478edcc7bfc22c01dc0c82db33fc6e5acae14a28e404f2856002600088815260200190815260200160002060020160009054906101000a900473ffffffffffffffffffffffffffffffffffffffff1684876040516108349493929190611f3c565b60405180910390a160019250505092915050565b60008054906101000a900473ffffffffffffffffffffffffffffffffffffffff1681565b60026020528060005260406000206000915090508060000154908060010160009054906101000a900473ffffffffffffffffffffffffffffffffffffffff16908060020160009054906101000a900473ffffffffffffffffffffffffffffffffffffffff16908060030160009054906101000a900473ffffffffffffffffffffffffffffffffffffffff1690806004018054600181600116156101000203166002900480601f0160208091040260200160405190810160405280929190818152602001828054600181600116156101000203166002900480156109905780601f1061096557610100808354040283529160200191610990565b820191906000526020600020905b81548152906001019060200180831161097357829003601f168201915b505050505090806005018054600181600116156101000203166002900480601f016020809104026020016040519081016040528092919081815260200182805460018160011615610100020316600290048015610a2e5780601f10610a0357610100808354040283529160200191610a2e565b820191906000526020600020905b815481529060010190602001808311610a1157829003601f168201915b505050505090806006018054600181600116156101000203166002900480601f016020809104026020016040519081016040528092919081815260200182805460018160011615610100020316600290048015610acc5780601f10610aa157610100808354040283529160200191610acc565b820191906000526020600020905b815481529060010190602001808311610aaf57829003601f168201915b5050505050908060070160009054906101000a900460ff1690806008018054600181600116156101000203166002900480601f016020809104026020016040519081016040528092919081815260200182805460018160011615610100020316600290048015610b7d5780601f10610b5257610100808354040283529160200191610b7d565b820191906000526020600020905b815481529060010190602001808311610b6057829003601f168201915b50505050509080600901549080600a01549080600b015490508c565b60045481565b6040518060e0016040528060045481526020013373ffffffffffffffffffffffffffffffffffffffff1681526020018673ffffffffffffffffffffffffffffffffffffffff168152602001858152602001848152602001838152602001828152506001600060045481526020019081526020016000206000820151816000015560208201518160010160006101000a81548173ffffffffffffffffffffffffffffffffffffffff021916908373ffffffffffffffffffffffffffffffffffffffff16021790555060408201518160020160006101000a81548173ffffffffffffffffffffffffffffffffffffffff021916908373ffffffffffffffffffffffffffffffffffffffff1602179055506060820151816003019080519060200190610cc9929190611613565b506080820151816004019080519060200190610ce6929190611613565b5060a0820151816005019080519060200190610d03929190611613565b5060c0820151816006019080519060200190610d20929190611613565b5090505060016004600082825401925050819055505050505050565b60016020528060005260406000206000915090508060000154908060010160009054906101000a900473ffffffffffffffffffffffffffffffffffffffff16908060020160009054906101000a900473ffffffffffffffffffffffffffffffffffffffff1690806003018054600181600116156101000203166002900480601f016020809104026020016040519081016040528092919081815260200182805460018160011615610100020316600290048015610e3a5780601f10610e0f57610100808354040283529160200191610e3a565b820191906000526020600020905b815481529060010190602001808311610e1d57829003601f168201915b505050505090806004018054600181600116156101000203166002900480601f016020809104026020016040519081016040528092919081815260200182805460018160011615610100020316600290048015610ed85780601f10610ead57610100808354040283529160200191610ed8565b820191906000526020600020905b815481529060010190602001808311610ebb57829003601f168201915b505050505090806005018054600181600116156101000203166002900480601f016020809104026020016040519081016040528092919081815260200182805460018160011615610100020316600290048015610f765780601f10610f4b57610100808354040283529160200191610f76565b820191906000526020600020905b815481529060010190602001808311610f5957829003601f168201915b505050505090806006018054600181600116156101000203166002900480601f0160208091040260200160405190810160405280929190818152602001828054600181600116156101000203166002900480156110145780601f10610fe957610100808354040283529160200191611014565b820191906000526020600020905b815481529060010190602001808311610ff757829003601f168201915b5050505050905087565b60008060009054906101000a900473ffffffffffffffffffffffffffffffffffffffff1673ffffffffffffffffffffffffffffffffffffffff163373ffffffffffffffffffffffffffffffffffffffff161461107957600080fd5b600160008381526020019081526020016000206000808201600090556001820160006101000a81549073ffffffffffffffffffffffffffffffffffffffff02191690556002820160006101000a81549073ffffffffffffffffffffffffffffffffffffffff02191690556003820160006110f391906115cb565b60048201600061110391906115cb565b60058201600061111391906115cb565b60068201600061112391906115cb565b505060019050919050565b60006001600088815260200190815260200160002060010160009054906101000a900473ffffffffffffffffffffffffffffffffffffffff1673ffffffffffffffffffffffffffffffffffffffff163373ffffffffffffffffffffffffffffffffffffffff16146111d4576040517f08c379a00000000000000000000000000000000000000000000000000000000081526004016111cb90611ce3565b60405180910390fd5b856001600089815260200190815260200160002060020160006101000a81548173ffffffffffffffffffffffffffffffffffffffff021916908373ffffffffffffffffffffffffffffffffffffffff16021790555084600160008981526020019081526020016000206003019080519060200190611253929190611613565b508360016000898152602001908152602001600020600401908051906020019061127e929190611613565b50826001600089815260200190815260200160002060050190805190602001906112a9929190611613565b50816001600089815260200190815260200160002060060190805190602001906112d4929190611613565b507f02a61f306af6670ea1ef1ea9158212edd638a6abf96cb91680b5ebe8276f097987878787878760405161130e96959493929190611ebf565b60405180910390a1600190509695505050505050565b60405180610180016040528060035481526020018773ffffffffffffffffffffffffffffffffffffffff1681526020018673ffffffffffffffffffffffffffffffffffffffff1681526020013373ffffffffffffffffffffffffffffffffffffffff168152602001848152602001838152602001858152602001600060018111156113ab57fe5b81526020016040518060400160405280600181526020017f3000000000000000000000000000000000000000000000000000000000000000815250815260200142815260200160008152602001828152506002600060035481526020019081526020016000206000820151816000015560208201518160010160006101000a81548173ffffffffffffffffffffffffffffffffffffffff021916908373ffffffffffffffffffffffffffffffffffffffff16021790555060408201518160020160006101000a81548173ffffffffffffffffffffffffffffffffffffffff021916908373ffffffffffffffffffffffffffffffffffffffff16021790555060608201518160030160006101000a81548173ffffffffffffffffffffffffffffffffffffffff021916908373ffffffffffffffffffffffffffffffffffffffff160217905550608082015181600401908051906020019061150c929190611613565b5060a0820151816005019080519060200190611529929190611613565b5060c0820151816006019080519060200190611546929190611613565b5060e08201518160070160006101000a81548160ff0219169083600181111561156b57fe5b021790555061010082015181600801908051906020019061158d929190611613565b50610120820151816009015561014082015181600a015561016082015181600b01559050506001600360008282540192505081905550505050505050565b50805460018160011615610100020316600290046000825580601f106115f15750611610565b601f01602090049060005260206000209081019061160f9190611693565b5b50565b828054600181600116156101000203166002900490600052602060002090601f016020900481019282601f1061165457805160ff1916838001178555611682565b82800160010185558215611682579182015b82811115611681578251825591602001919060010190611666565b5b50905061168f9190611693565b5090565b5b808211156116ac576000816000905550600101611694565b5090565b6000813590506116bf81612112565b92915050565b600082601f8301126116d657600080fd5b81356116e96116e482611fb5565b611f88565b9150808252602083016020830185838301111561170557600080fd5b6117108382846120b2565b50505092915050565b60008135905061172881612129565b92915050565b60008060008060008060c0878903121561174757600080fd5b600061175589828a016116b0565b965050602061176689828a016116b0565b955050604087013567ffffffffffffffff81111561178357600080fd5b61178f89828a016116c5565b945050606087013567ffffffffffffffff8111156117ac57600080fd5b6117b889828a016116c5565b935050608087013567ffffffffffffffff8111156117d557600080fd5b6117e189828a016116c5565b92505060a06117f289828a01611719565b9150509295509295509295565b600080600080600060a0868803121561181757600080fd5b6000611825888289016116b0565b955050602086013567ffffffffffffffff81111561184257600080fd5b61184e888289016116c5565b945050604086013567ffffffffffffffff81111561186b57600080fd5b611877888289016116c5565b935050606086013567ffffffffffffffff81111561189457600080fd5b6118a0888289016116c5565b925050608086013567ffffffffffffffff8111156118bd57600080fd5b6118c9888289016116c5565b9150509295509295909350565b6000602082840312156118e857600080fd5b60006118f684828501611719565b91505092915050565b60008060008060008060c0878903121561191857600080fd5b600061192689828a01611719565b965050602061193789828a016116b0565b955050604087013567ffffffffffffffff81111561195457600080fd5b61196089828a016116c5565b945050606087013567ffffffffffffffff81111561197d57600080fd5b61198989828a016116c5565b935050608087013567ffffffffffffffff8111156119a657600080fd5b6119b289828a016116c5565b92505060a087013567ffffffffffffffff8111156119cf57600080fd5b6119db89828a016116c5565b9150509295509295509295565b600080604083850312156119fb57600080fd5b6000611a0985828601611719565b925050602083013567ffffffffffffffff811115611a2657600080fd5b611a32858286016116c5565b9150509250929050565b611a458161206a565b82525050565b611a548161200f565b82525050565b611a6381611ffd565b82525050565b611a7281612021565b82525050565b611a818161207c565b82525050565b6000611a9282611fe1565b611a9c8185611fec565b9350611aac8185602086016120c1565b611ab5816120f4565b840191505092915050565b6000611acd605783611fec565b91507f4f6e6c792074686520636f6e7472616374206f776e65722c20746865206f726460008301527f6572657220616e642074686520726567697374657265642070726f66696c652060208301527f616e6420706572666f726d207468697320616374696f6e0000000000000000006040830152606082019050919050565b6000611b59602c83611fec565b91507f4f6e6c7920746865207265676973746572656420616464726573732063616e2060008301527f6d616b65206368616e67657300000000000000000000000000000000000000006020830152604082019050919050565b6000611bbf602583611fec565b91507f54686973206f726465722068617320616c7265616479206265656e2064656c6960008301527f76657265640000000000000000000000000000000000000000000000000000006020830152604082019050919050565b6000611c25602783611fec565b91507f4f6e6c7920746865207265676973746572656420757365722063616e2073656e60008301527f64206f72646572000000000000000000000000000000000000000000000000006020830152604082019050919050565b611c8781612060565b82525050565b6000602082019050611ca26000830184611a5a565b92915050565b6000602082019050611cbd6000830184611a69565b92915050565b60006020820190508181036000830152611cdc81611ac0565b9050919050565b60006020820190508181036000830152611cfc81611b4c565b9050919050565b60006020820190508181036000830152611d1c81611bb2565b9050919050565b60006020820190508181036000830152611d3c81611c18565b9050919050565b6000602082019050611d586000830184611c7e565b92915050565b600061018082019050611d74600083018f611c7e565b611d81602083018e611a4b565b611d8e604083018d611a4b565b611d9b606083018c611a4b565b8181036080830152611dad818b611a87565b905081810360a0830152611dc1818a611a87565b905081810360c0830152611dd58189611a87565b9050611de460e0830188611a78565b818103610100830152611df78187611a87565b9050611e07610120830186611c7e565b611e15610140830185611c7e565b611e23610160830184611c7e565b9d9c50505050505050505050505050565b600060e082019050611e49600083018a611c7e565b611e566020830189611a4b565b611e636040830188611a4b565b8181036060830152611e758187611a87565b90508181036080830152611e898186611a87565b905081810360a0830152611e9d8185611a87565b905081810360c0830152611eb18184611a87565b905098975050505050505050565b600060c082019050611ed46000830189611c7e565b611ee16020830188611a3c565b8181036040830152611ef38187611a87565b90508181036060830152611f078186611a87565b90508181036080830152611f1b8185611a87565b905081810360a0830152611f2f8184611a87565b9050979650505050505050565b6000608082019050611f516000830187611c7e565b611f5e6020830186611a3c565b611f6b6040830185611c7e565b8181036060830152611f7d8184611a87565b905095945050505050565b6000604051905081810181811067ffffffffffffffff82111715611fab57600080fd5b8060405250919050565b600067ffffffffffffffff821115611fcc57600080fd5b601f19601f8301169050602081019050919050565b600081519050919050565b600082825260208201905092915050565b600061200882612040565b9050919050565b600061201a82612040565b9050919050565b60008115159050919050565b600081905061203b82612105565b919050565b600073ffffffffffffffffffffffffffffffffffffffff82169050919050565b6000819050919050565b60006120758261208e565b9050919050565b60006120878261202d565b9050919050565b6000612099826120a0565b9050919050565b60006120ab82612040565b9050919050565b82818337600083830152505050565b60005b838110156120df5780820151818401526020810190506120c4565b838111156120ee576000848401525b50505050565b6000601f19601f8301169050919050565b6002811061210f57fe5b50565b61211b8161200f565b811461212657600080fd5b50565b61213281612060565b811461213d57600080fd5b5056fea2646970667358221220f40ce8f92adaa85e706c2def654a5b004df4f82d284f11443d03905a08b232a164736f6c634300060c0033",
  "immutableReferences": {},
  "source": "//SPDX-License-Identifier: MIT\n\npragma solidity >=0.6.0 <0.7.0;\npragma experimental ABIEncoderV2;\n\ncontract VideoContract {\n    //owner of contract\n    address public owner;\n\n    //onlyOwner modifier\n    modifier onlyOwner {\n        require(msg.sender == owner);\n        _;\n    }\n\n    //Logging events\n    event UpdatedUser(uint id, address charity, string description, string title, string name, string image);\n    event DeliverySent(uint id, address charity, uint amount, string video);\n\n    constructor() public {\n        owner = msg.sender;\n    }\n\n    //1_Registration by owner\n    //Registration variables\n    //NOTE: mapping cannot have address payable, has to be cast to payable when needed\n    mapping (uint => Celebrity) public registeredCelebs;\n    mapping (uint => Video) public orders;\n\n\n    //2_Video variables:\n    // enum for video status\n    //struct for video properties\n    //video array to store all video orders\n    enum VideoStatus { New, Done }\n\n    uint videoCount = 0;\n    uint public celebCount = 0;\n\n    struct Video {\n        uint videoId; //pointer\n        address payable celebrity;\n        address payable charity;\n        address payable donor;\n        string name_to;\n        string name_from;\n        string description;\n        VideoStatus status;\n        string video;\n        uint order_date;\n        uint delivery_date;\n        uint donatedAmount;\n    }\n\n\n    //also needs to add charity?\n    struct Celebrity {\n        uint id;\n        //bool isRegistered;\n        address payable celebrity;\n        address payable charity;\n        string description;\n        string title;\n        string name;\n        string image;\n        //bytes32[] manyKeys;\n        //mapping(bytes32 => uint) manyKeyPointers;\n    }\n\n\n    function registerCelebrity(address payable _charity,\n                                string memory _description,\n                                string memory _title,\n                                string memory _name,\n                                string memory _image\n                                )\n                            public payable {\n        registeredCelebs[celebCount] = Celebrity(celebCount, msg.sender, _charity, _description, _title, _name, _image);\n        celebCount += 1;\n    }\n\n\n    /**\n     * Function for people to order a video\n     * x the new value to store\n     * stores the number in the state variable 'storedData'\n    */\n    function orderVideo(\n                        address payable _celebrity,\n                        address payable _charity,\n                        string memory _description,\n                        string memory _nameTo,\n                        string memory _nameFrom,\n                        uint _amount\n                        )\n                        public payable {\n\n        orders[videoCount] = Video(videoCount,\n                                    _celebrity,\n                                    _charity,\n                                    payable(msg.sender),\n                                    _nameTo,\n                                    _nameFrom,\n                                    _description,\n                                    VideoStatus.New,\n                                    \"0\",\n                                    block.timestamp,\n                                    0,\n                                    _amount\n                                    );\n        //deployedVideos.push(newVideo);\n        videoCount += 1;\n    }\n\n\n    //Function to update video status and donate to beneficiary\n    //front end to pass which video was selected.\n    function sendOrder(uint _id, string memory _hash) public payable returns (bool success) {\n        //convert msg.sender to address payable from mapping\n        //address payable videoBeneficiary = payable(celebrityBeneficiaryChoice[msg.sender]);\n        require(orders[_id].status != VideoStatus.Done, \"This order has already been delivered\");\n        require(msg.sender == orders[_id].celebrity, \"Only the registered user can send order\");\n\n       //update video struct\n        orders[_id].status = VideoStatus.Done;\n        orders[_id].video = _hash;\n        orders[_id].delivery_date = block.timestamp;\n\n        uint donation = orders[_id].donatedAmount;\n        address payable charity = orders[_id].charity;\n\n       //send donation to _charity\n        charity.transfer(donation); //fix\n        emit DeliverySent(_id, orders[_id].charity, donation, _hash);\n        return true;\n    }\n\n    //Function to update User\n    function updateUser(uint _id,\n                        address payable _charity,\n                        string memory _description,\n                        string memory _title,\n                        string memory _name,\n                        string memory _image\n                        )\n                    public returns (bool succeess) {\n\n        require(msg.sender == registeredCelebs[_id].celebrity, \"Only the registered address can make changes\");\n\n       //update Celebrity Struct\n        registeredCelebs[_id].charity = _charity;\n        registeredCelebs[_id].description = _description;\n        registeredCelebs[_id].title = _title;\n        registeredCelebs[_id].name = _name;\n        registeredCelebs[_id].image = _image;\n\n        emit UpdatedUser(_id, _charity, _description, _title, _name, _image);\n        return true;\n    }\n\n    //function to delete orders\n    function deleteOrder(uint _id) public payable returns (bool success) {\n        require (orders[_id].donor == msg.sender ||\n                owner == msg.sender ||\n                orders[_id].celebrity == msg.sender\n                , \"Only the contract owner, the orderer and the registered profile and perform this action\");\n\n        orders[_id].donor.transfer(orders[_id].donatedAmount);\n        delete orders[_id];\n        return true;\n    }\n\n    //function to delete orders\n    function deleteCelebrity(uint _id) public onlyOwner returns (bool success) {\n        delete registeredCelebs[_id];\n        return true;\n    }\n}\n",
  "sourcePath": "/Users/filipsundgren/Projects/Ethereum/dapp/contracts/VideoContract.sol",
  "compiler": {
    "name": "solc",
    "version": "0.6.12+commit.27d51765.Emscripten.clang"
  },
  "schemaVersion": "3.1.0",
  "updatedAt": "2021-02-12T11:06:22.278Z",
  "networkType": "ethereum",
  "devdoc": {
    "kind": "dev",
    "methods": {},
    "version": 1
  },
  "userdoc": {
    "kind": "user",
    "methods": {
      "orderVideo(address,address,string,string,string,uint256)": {
        "notice": "Function for people to order a video x the new value to store stores the number in the state variable 'storedData'"
      }
    },
    "version": 1
  }
}